:100000000C943F000C945C000C945C000C945C001D
:100010000C94721D0C945C000C945C000C945C00BD
:100020000C945C000C945C000C945C000C945C00E0
:100030000C945C000C945C000C945C000C945C00D0
:100040000C945C000C945C000C945C000C945C00C0
:100050000C945C002A1C2D1C491D8E1C491D491D39
:10006000491D491D491D491D0A1D0F1D141D1F1D38
:10007000351D416C61206D61206B6F74610011242E
:100080001FBECFE5D8E0DEBFCDBF11E0A0E6B0E0F7
:10009000E4E4F4E402C005900D92A038B107D9F76A
:1000A00024E0A0E8B1E001C01D92A630B207E1F75C
:1000B0000E94961D0C9420220C940000DA98DB9A82
:1000C0009BB3282F207F9F70922B9BBBEFE9FFE013
:1000D0003197F1F700C00000DB98EFE9FFE03197BE
:1000E000F1F700C00000DB9A2BB3F0E18F9FC00155
:1000F0001124922F9F70892B8BBB8FE99FE0019772
:10010000F1F700C00000DB98EFE9FFE03197F1F76D
:1001100000C000000895DA9ADB9A9BB3282F207F55
:100120009F70922B9BBBEFE9FFE03197F1F700C086
:100130000000DB98EFE9FFE03197F1F700C0000025
:10014000DB9A2BB3F0E18F9FC0011124922F9F7097
:10015000892B8BBB8FE99FE00197F1F700C000006E
:10016000DB98EFE9FFE03197F1F700C00000089558
:100170008FEF8ABB2FE782E392E0215080409040CE
:10018000E1F700C0000083E30E945E0082E30E946A
:100190005E0088E20E945E0088E00E945E0081E0CE
:1001A0000E945E0086E00E945E008FE00C945E007C
:1001B00081E00C945E00805890E4699F800D1124CA
:1001C0000C945E000F931F93CF93DF938A010E94DC
:1001D000DB00E8018991882319F00E948B00FACF97
:1001E000DF91CF911F910F9108950E948B0080E0C5
:1001F00090E00895811102C08CE003C0813019F4B1
:100200008FE00C945E000895BB9A8FE797E001970A
:10021000F1F700C00000BB98E7E1F1E03197F1F79A
:1002200000C0000086B3E7E6F6E03197F1F700C0C2
:10023000000088700895BB9A882351F080E28A9567
:10024000F1F7BB988FEF90E00197F1F700C00AC07B
:100250008FEE90E00197F1F700C00000BB9895E3A6
:100260009A95F1F700000895BB9A80E28A95F1F71C
:10027000BB98E0E3EA95F1F786B3EBEDF0E0319758
:10028000F1F700C0000088700895CF93DF93D82F56
:10029000C8E08D2F81700E941B01D695C150C9F70F
:1002A000DF91CF910895CF93DF93D8E0C0E0C6955A
:1002B0000E9434018111C068D150C9F78C2FDF91A1
:1002C000CF910895FC0162817381CB01A0E0B0E081
:1002D000BA2FA92F982F88272181822BBA2FA92FD7
:1002E000982F88272081BC01CD01622B08950F93A0
:1002F0001F93FC019A01AB012250310941095109B8
:1003000083899489A589B6890297A109B10928171B
:1003100039074A075B0768F4A185B2850E94E01E91
:1003200007A110A521A532A5600F711F821F931F81
:1003300003C060E070E0CB011F910F910895CF934F
:10034000DF93DC01ED91FC9111973097D1F09F0183
:100350002F5F3F4FE90121978881813278F08A33FE
:10036000B9F7908180ED890F8A3058F432962E17B4
:100370003F0739F4903329F42D933C9380E090E0CB
:1003800002C08FEF9FEFDF91CF9108950F931F93DE
:10039000CF93DF93EC018B01892BF1F0E881F98198
:1003A0003097D1F080818823B9F02A813B81858103
:1003B00096812817390781F481810E94471B80FDAF
:1003C0000BC02881398180E0F80131832083DF91DF
:1003D000CF911F910F91089589E020E030E0F4CF94
:1003E000FB01480F591F2191DC012D93CD01A4176A
:1003F000B507C9F70895FB01428D538D60E070E0A9
:10040000833059F484899589A0E0B0E0DC01992714
:100410008827482B592B6A2B7B2BCB01BA010895D7
:10042000FB01228F338FDC018C91833029F4CA01C8
:10043000AA27BB27848B958B08950F931F93CF9387
:10044000DF93FC01EB0120E030E040E050E08EE281
:10045000BA016F5F7F4FA28DB38DA40FB51F9C9122
:100460009032A1F0953009F495EE6930710539F4B8
:10047000DE01A20FB31F19968C932F5F3F4FDE0151
:10048000A20FB31F19969C932F5F3F4FAB016B30A8
:100490007105F1F6DE01A20FB31F19961C92A28D11
:1004A000B38D1B968C918887028D138DC8014C9655
:1004B0000E946201688379838A839B83F80186891D
:1004C00097899F838E83808D918D9D838C83DF910F
:1004D000CF911F910F9108958F929F92AF92BF92EB
:1004E000EF92FF920F931F93CF93DF93FC01238131
:1004F0002223C1F1EC017C01FFE2EF0EF11C2BA5E0
:100500003CA54DA55EA501E010E0B70189810E94E0
:10051000991B811129C01B820BA51CA52DA53EA5E9
:100520008F89988DA98DBA8D8F8C98A0A9A0BAA01B
:10053000B901A801481959096A097B0948175907DF
:100540006A077B0778F46A81623061F4A901980137
:10055000280F391F4A1F5B1F01E010E0B701898196
:100560000E94991B80E001C081E0DF91CF911F9133
:100570000F91FF90EF90BF90AF909F908F90089554
:100580008F929F92AF92BF92FF920F931F93CF9340
:10059000DF93EC014A015B010E946C02F82E81118D
:1005A00016C001E010E0A5019401BE01615D7F4F1E
:1005B00089810E944E1B882331F0FF24F394882404
:1005C0008A94982C54018BA69CA6ADA6BEA68F2D0E
:1005D000DF91CF911F910F91FF90BF90AF909F90AF
:1005E0008F9008950F931F93FC0103A514A525A5D3
:1005F00036A5041715072607370721F01F910F911D
:100600000C94C00280E01F910F910895CF93DF9367
:10061000FC01DC01A35DBD4F4D915C9187A58B3E34
:1006200021F0885E823008F040C045356AEA5607FE
:10063000A9F4DF01AF57BF4FC7E6D1E09F012757AD
:100640003F4F8D91699190E0861B9109A217B307E6
:1006500019F0892BB1F302C0892B69F122AD33ADBA
:10066000C9010197822393230097F9F421153240A1
:10067000E1F424AD2223C9F030E0B90161507109E1
:1006800026233723232B89F427AD2150223068F409
:10069000DF01A05CBF4F2D913C91232B31F0EB5B30
:1006A000FF4F20813181232B59F445355A4A31F0CF
:1006B00083E090E005C080E090E002C082E090E03E
:1006C000DF91CF910895AF92BF92CF92DF92EF92D8
:1006D000FF920F931F93CF93DF9342305105610533
:1006E000710508F4A1C0FC010389148925893689A4
:1006F000401751076207730708F096C06A017B0133
:100700008C018081823009F44DC0833009F469C0C6
:10071000813009F089C0EA01D695C795CC0DDD1D61
:10072000CE01892F99278695478D50A161A172A18D
:10073000480F591F611D711DCF010E94F2028823CD
:1007400021F06FEF7FEFCB0173C05E01FFEFAF1AB7
:10075000BF0AD170C00FD11FCFA5C501892F99271E
:100760008695F801478D50A161A172A1480F591FCC
:10077000611D711DC8010E94F2028111E2CFF1E0FA
:10078000BF22F801EA0DFB1D87A56C2F70E0782BC6
:10079000C0FE06C054E0769567955A95E1F71EC0F5
:1007A0007F701CC077276F2D5E2D4D2D878D90A1FA
:1007B000A1A1B2A1480F591F6A1F7B1FCF010E9440
:1007C000F2028111BECFCC0CDD1CE894C0F8F1E040
:1007D000DF22F801EC0DFD1D67A570A980E090E017
:1007E00027C0878D90A1A1A1B2A127E0769567953A
:1007F000579547952A95D1F7480F591F6A1F7B1FB8
:10080000CF010E94F20281119CCF015D1F4FCC0CE1
:10081000DD1CCC0CDD1CC6018C7F9170800F911FFC
:100820000E9462019F7004C061E070E080E090E08F
:10083000DF91CF911F910F91FF90EF90DF90CF90BC
:10084000BF90AF900895CF92DF92EF92FF920F93F7
:100850001F93CF93DF938C01FC01C081D181168659
:100860001786108A118AC680D780E084F184C1146B
:10087000D104E104F104E9F48881833040F08BA1D4
:100880009CA1ADA1BEA10097A105B10581F48F8106
:100890009885892B11F482E04CC08BA19CA1ADA15D
:1008A000BEA1F801868B978BA08FB18F2EC06C01F3
:1008B0007D0189859A85892BF1F4B701A601F8019C
:1008C000808191810E9463036B017C016F3F7F4FA8
:1008D0008F4F9F4F69F182E0C816D104E104F10403
:1008E000D0F28B899C89AD89BE89C816D906EA06E3
:1008F000FB0618F3D0CFB701A601CE010E94770105
:10090000F801668B778B808F918FF801C28AD38A2A
:10091000E48AF58A86899789A08DB18D892B8A2BE7
:100920008B2B09F4B8CFAF96D38FC28F80E001C074
:1009300081E0DF91CF911F910F91FF90EF90DF90B9
:10094000CF9008958F929F92AF92BF92CF92DF92F5
:10095000EF92FF920F931F93CF93DF93EC016A0105
:100960007B010E946C02811138C0B701A601CE0143
:100970000E9477014B015C016BA77CA78DA79EA706
:100980006E018FE2C80ED11CF601CE01815D9D4F34
:100990001192E817F907E1F7E12CF12C89859A8586
:1009A000E816F90640F081E029853A852E153F05C5
:1009B000A9F480E013C001E010E0A50194012E0D20
:1009C0003F1D411D511DB60189810E94991B811156
:1009D000EACF8FEFE81AF80AE1CF81E0DF91CF91FB
:1009E0001F910F91FF90EF90DF90CF90BF90AF904D
:1009F0009F908F9008954F925F926F927F928F9207
:100A00009F92AF92BF92CF92DF92EF92FF920F939D
:100A10001F93CF93DF93CDB7DEB7A0970FB6F894AF
:100A2000DEBF0FBECDBF5B01F42EDB011D921C9219
:100A30000E949F016C0197FD4EC2FC01EE0FFF1F4B
:100A4000EE57FE4F008111810115110509F445C2D1
:100A5000F50111830083FF2DFE7FFF2ED8018C91BD
:100A6000882369F011968C910E94471B80FD07C076
:100A7000FF2009F434C282FF32C28AE03CC2F8018E
:100A80001082C1828C2D0E94751A80FD2AC2FF201F
:100A900011F082FDF2CFD80113961C928FEF9FEFD9
:100AA000DC01F80183A794A7A5A7B6A740E050E012
:100AB000BA01C8010E94C00281114EC0C8010E9443
:100AC00006038230910509F049C06801FBE0CF1AA6
:100AD000FEEFDF0A9E012F5F3F4F790148013BEC9B
:100AE000831A3DEF930A5701C6010E946201D501A6
:100AF0006D937D938D939D935D01B0E1CB0ED11CE1
:100B0000C814D90489F76E01E1E1CE0ED11C882406
:100B10008A94982C5401D7014D915D916D917D91EE
:100B20007D01411551056105710509F4DEC1F8012A
:100B3000138283A694A6A5A6B6A6C8010E94F202B7
:100B40008111D6C1C8010E9406038230910530F0A0
:100B5000CE14DF0401F702C084E090E084309105F8
:100B600009F4C1C1029710F08DE0C5C1F80182AD52
:100B700093AD81159240C1F7F801EB5BFF4F4080C8
:100B800051804114510419F0612C712C07C0C80127
:100B90008D5A9F4F0E9462012B013C01D8019B9608
:100BA0002D913D914D915C919E97298B3A8B4B8B6A
:100BB0005C8BF801478A508E618E728EA7ACA28240
:100BC0008FEF8A0D823080F6B4AC8B2D90E0928747
:100BD0008187009749F29C01215031098223932398
:100BE000892B11F6E05CFF4F8080918018969C92D3
:100BF0008E921797C4018F709927892B09F0B4CF73
:100C00003296808191816C01E12CF12C892B39F491
:100C1000C801815B9F4F0E9462016B017C01D8017A
:100C2000DD96ED91FC91DE97309709F49DCFAA2DCA
:100C3000B0E0A30192010E94E01E698F7A8F8B8F32
:100C40009C8F9F0140E050E02D8F3E8F4F8F58A327
:100C5000C401F4E096958795FA95E1F7280F391FBE
:100C6000411D511DDA01C901298D3A8D4B8D5C8DD5
:100C7000280F391F4A1F5B1F2D8B3E8B4F8B588FC0
:100C8000C216D306E406F50608F46ECFC701B60116
:100C9000621B730B840B950B2B2D30E040E050E072
:100CA0000E94B81EDA01C9010197A109B109853F67
:100CB0009F4FAF4FBF4008F057CF263F8FEF380709
:100CC0004105510550F4263F9FE039074105510584
:100CD00040F4AA24A394B12C07C073E0A72EB12C32
:100CE00003C062E0A62EB12C69017A01A2E0CA0E0F
:100CF000D11CE11CF11CF801C38AD48AE58AF68A6A
:100D000029893A894B895C89238F348F458F568F87
:100D10008D8D9E8DAF8DB8A1280F391F4A1F5B1F87
:100D20002D8F3E8F4F8F58A3278F30A341A352A3FF
:100D300049895A896B897C898D899E89AF89B88D4B
:100D4000480F591F6A1F7B1F47A350A761A772A7AF
:100D5000B3E0AB16B104E1F4E75AFF4F8081918113
:100D6000892B09F001CF892809F0FECEC801855AE8
:100D70009F4F0E946201F80163A374A385A396A309
:100D800042E0CC0CDD1CEE1CFF1C4A95D1F732C0B2
:100D9000892809F4E9CE8D8D9E8DAF8DB8A1298D5E
:100DA0003A8D4B8D5C8D820F931FA41FB51FF801E8
:100DB00083A394A3A5A3B6A3F2E0AF16B10429F4CC
:100DC000CC0CDD1CEE1CFF1C15C0A3E0B0E0A7019D
:100DD00096010E94E01EDC01CB01B695A795979580
:100DE000879521E0C222DD24EE24FF24C80ED91EFF
:100DF000EA1EFB1E3FEFC30E31E0D31EE11CF11CC7
:100E000089E0F694E794D794C7948A95D1F74C1467
:100E10005D046E047F0408F4A7CE8FEF9FEFDC0122
:100E2000F8018787908BA18BB28B83879487A587E6
:100E3000B68780E88483F3E0AF16B104F1F5F801DA
:100E4000E15AFF4F808191810197B9F549895A890B
:100E50006B897C894F5F5F4F6F4F7F4FC8010E9446
:100E6000F20281112AC0D80114961C92F801E35DA8
:100E7000FD4F8081918185359A4AF9F4C8018F969A
:100E80000E9462016235724581469144B1F4C80105
:100E90008D5E9D4F0E946201623772478144914688
:100EA00061F4C801855E9D4F0E946201D8011B96C6
:100EB0006D937D938D939C931E97F801A0828091F2
:100EC000800190918101019690938101809380012E
:100ED0009683858304C08BE00EC08CE00CC080E05C
:100EE0000AC083E008C081E006C083E090E030CE15
:100EF00084E090E02DCEA0960FB6F894DEBF0FBE32
:100F0000CDBFDF91CF911F910F91FF90EF90DF90B8
:100F1000CF90BF90AF909F908F907F906F905F9099
:100F20004F9008952F923F924F925F926F927F92CF
:100F30008F929F92AF92BF92CF92DF92EF92FF92E9
:100F40000F931F93CF93DF9300D000D0CDB7DEB7C0
:100F5000423051056105710508F4E6C0FC01C38803
:100F6000D488E588F6884C155D056E057F0508F088
:100F7000DBC0280139016A017B019C838B8380815E
:100F8000823009F471C0833009F490C0813009F0D7
:100F9000CBC05A01B694A794A40EB51EC501892FE3
:100FA00099278695478D50A161A172A1480F591FBD
:100FB000611D711DCF010E94F202182F8111B5C071
:100FC0002B813C81215D3F4F3A83298315013FEFFF
:100FD000231A330A81E0B822E981FA81EA0DFB1D68
:100FE0004601570191E089229924AA24BB24C0FE1E
:100FF00009C08081282F2F7030E1439EC001112449
:10100000822B01C0842D808381E0EB81FC8183836E
:10101000478D50A161A172A1C101892F99278695A1
:10102000480F591F611D711DCF010E94F202182F38
:1010300081117BC0F1E03F22E981FA81E20DF31DCD
:1010400089288A288B2841F054E076946794579435
:1010500047945A95D1F706C00081007F852D8F7087
:10106000402E482A40825BC077276F2D5E2D4D2D84
:10107000EB81FC81878D90A1A1A1B2A1480F591FDE
:101080006A1F7B1FCF010E94F202182F81114DC0F1
:10109000EB81FC81BF96CC0CDD1CE894C0F821E00C
:1010A000D222EC0DFD1D4082518239C0EB81FC81C2
:1010B000878D90A1A1A1B2A127E07695679557955C
:1010C00047952A95D1F7480F591F6A1F7B1FCF01FB
:1010D0000E94F202182F811128C04B815C81415D72
:1010E0005F4FCC0CDD1CCC0CDD1CFCEFCF22F1E003
:1010F000DF22C40ED51EC6010E9462012FE07222BB
:10110000DC01CB0188279927AA27B07F482A592AD2
:101110006A2A7B2AF601408251826282738281E0D0
:10112000EB81FC81838301C012E0812F0F900F902F
:101130000F900F90DF91CF911F910F91FF90EF9043
:10114000DF90CF90BF90AF909F908F907F906F90E7
:101150005F904F903F902F9008954F925F926F92C3
:101160007F928F929F92AF92BF92CF92DF92EF9237
:10117000FF920F931F93CF93DF938C012A013B01C2
:10118000FC01C081D181411551056105710599F4BA
:101190008B849C84AD84BE8481149104A104B10429
:1011A00059F18B899C89AD89BE8988169906AA0652
:1011B000BB0630F121C0CE010E946303623071058D
:1011C0008105910508F4EEC06F3FFFEF7F078F07A1
:1011D0009F0729F44FEF3FEF2FEF9FEFEBC0CB8836
:1011E000DC88ED88FE886C157D058E059F0508F46A
:1011F000DEC05301420104C0812C912C5401839420
:101200008F859889A989BA89892B8A2B8B2B11F410
:1012100040E0C9C084149504A604B70409F047C08F
:10122000750164012FEFC21AD20AE20AF20A8B8911
:101230009C89AD89BE89C816D906EA06FB0628F046
:1012400092E0C92ED12CE12CF12CB701A601F801B6
:10125000808191810E946303613071058105910550
:1012600009F4A0C06F3FFFEF7F078F079F0709F4C6
:10127000B1CF672B682B692BA9F08B859C85AD8539
:10128000BE8582309105A105B10588F04B895C8946
:101290006D897E8984179507A607B70740F44C012E
:1012A0005D0105C0C114D104E104F104D1F575015B
:1012B00064012FEFC21AD20AE20AF20A8B899C89D2
:1012C000AD89BE89C816D906EA06FB0660F082E041
:1012D00088169104A104B10408F49ACF82E0C82EC4
:1012E000D12CE12CF12CB701A601F801808191816C
:1012F0000E946303611571058105910591F06130CC
:1013000071058105910509F44DC06F3F7F4F8F4FE7
:101310009F4F09F45FCFC814D904EA04FB0449F6CF
:1013200077CF0FEF1FEF9801B701A601CE010E9402
:101330009207811134C04114510461047104E9F42D
:10134000CB86DC86ED86FE868F859889A989BA8949
:101350004B895C896D897E89425051096109710907
:10136000481759076A077B0790F00197A109B1094F
:101370008F87988BA98BBA8B0AC097018601B3011E
:10138000A201CE010E9492078823D1F208C08C816D
:1013900081608C834C2D3D2D2E2D9F2D0BC08130D7
:1013A00009F418CF41E030E020E090E003C0462F80
:1013B000372F282F642F732F822FDF91CF911F910A
:1013C0000F91FF90EF90DF90CF90BF90AF909F90E4
:1013D0008F907F906F905F904F9008954F925F92A3
:1013E0006F927F92AF92BF92CF92DF92EF92FF9275
:1013F0000F931F93CF93DF93EC0108811981CE8463
:10140000DF84E888F98880E2C80ED11CE11CF11C59
:10141000C114D104E0E2EE06F10420F01E8A1F8A16
:10142000188E198E8E899F89A88DB98D0097A10578
:10143000B10509F4A6C05B01B701A601517066278A
:101440007727452B462B472B09F08DC00196A11D10
:10145000B11D8E8B9F8BA88FB98F4A895B896C8950
:101460007D89F8014115510561057105C1F4878138
:101470009085A0E0B0E0B701A60135E076956795CC
:10148000579547953A95D1F7481759076A077B074B
:1014900008F469C01E8A1F8A188E198E72C0818551
:1014A00092850197A0E0B0E02601370129E076940B
:1014B0006794579447942A95D1F784219521A621C2
:1014C000B721892B8A2B8B2B09F04DC0C8010E94B4
:1014D00063032B013C01623071058105910510F415
:1014E00082E052C08FEF481658066806780611F45D
:1014F00081E04AC0F80183899489A589B689481694
:1015000059066A067B0610F1AB2821F24A895B89ED
:101510006C897D89CE010E94AD082B013C016115CB
:1015200071058105910579F161307105810591059C
:10153000B9F28FEF4816580668067806C9F2B3016B
:10154000A201C8010E94A2048111D2CF4A8A5B8AFB
:101550006C8A7D8AB301A201C8010E9477016E8B5B
:101560007F8B888F998FCE86DF86E88AF98A015D26
:101570001F4FE1E0DE22C00ED11EDB8ECA8E80E05E
:1015800003C084E001C087E0DF91CF911F910F91EC
:10159000FF90EF90DF90CF90BF90AF907F906F90D3
:1015A0005F904F9008952F923F924F925F926F926B
:1015B0007F928F929F92AF92BF92CF92DF92EF92E3
:1015C000FF920F931F93CF93DF93FC01C080D180D4
:1015D0009B018901F90140812F5F3F4F4F32C9F3D1
:1015E0004C35B9F3FC011682178210861186F8017A
:1015F0002081203290F0EC017C01FCE1EF0EF11C27
:101600003C0187E2680E711C80E2382E95E0292E9D
:101610004601EFE28E0E911C52C020E8FC0127A388
:10162000DF91CF911F910F91FF90EF90DF90CF90BE
:10163000BF90AF909F908F907F906F905F904F90F2
:101640003F902F900C9423043192E615F705E1F7B3
:10165000F80180E090E020E030E068E070E02F5F8B
:101660003F4F5191513268F5020F131F892B09F436
:101670008DC08C8D853E09F42C8E513208F450C0FB
:1016800080E08FA3A880B980CE010E942304882324
:1016900009F448C09FA1811173C092FD8CC08C8158
:1016A00084FF72C06E857F857170680D791DF601AB
:1016B00080810E94FB016E837F8388879987F70171
:1016C000C3CF5F3221F4F801E20FF31F05C05C3590
:1016D00051F4F9CF4C3541F69F01201B310B41915C
:1016E0004F32C1F7F9CF5E3209F45DC08617970714
:1016F00008F04CC057FF06C0A52FAF77B0E0A15946
:10170000BF4F5C91A52EB12CA0E7B1E04D914423D1
:1017100009F43EC0442E512CA414B504B9F736C0C8
:1017200084E0AFCF4E895F89688D798DC5010E94B5
:10173000F2028111AFCFEA8DFB8D90819923F1F0F8
:1017400093859F739C83938593FD12C0AF01455F82
:101750005F4FD70121919D9130E0291B31094E1730
:101760005F0719F0232BB1F303C0232B09F492CFA9
:1017700060E070E0CE010E94EE0989CF84E08ACF5C
:101780008430C9F492FD17C085E015C086E013C00F
:101790004FE9450F4A3108F45052D701A80FB91F3D
:1017A0005C9301965CCF6B30710581F388E090E02B
:1017B0006BE070E054CFDF91CF911F910F91FF90BC
:1017C000EF90DF90CF90BF90AF909F908F907F90E1
:1017D0006F905F904F903F902F9008950F931F93BD
:1017E000CF93DF93EC010881198184E04E895F89F2
:1017F000688D798D411551056105710501F1C801AB
:101800000E94F20281111DC0EA8DFB8D9081992307
:10181000E9F083858F738C83953E49F09E3239F0D1
:101820008F3029F08F71883011F080E011C060E0B6
:1018300070E0CE010E94EE098823C1F202C0882325
:10184000A1F31E8A1F8A188E198E02C084E0F9CF78
:10185000DF91CF911F910F910895EF92FF920F9317
:101860001F93CF938C01DC01ED90FC900E94230428
:10187000C82F811141C0F80146895789608D718D4B
:10188000C7010E94F202C82F811136C0D8015A96B2
:10189000ED91FC915B978081853E99F4F801468932
:1018A0005789608D718DC7010E94F202C82F811186
:1018B00026C0D8015A96ED91FC915B97CF01809696
:1018C00008C0882359F361E070E0C8010E94EE0966
:1018D000CFCF11928E179F07E1F7B801645E7F4F5B
:1018E0004BE050E0F801828D938D0E94F00181E081
:1018F000D70113968C9303C0C43009F4C7E08C2F32
:10190000CF911F910F91FF90EF9008954F925F92AA
:101910006F927F928F929F92AF92BF92EF92FF92BF
:101920000F931F93CF93DF937C014A015B01B901B1
:10193000A80122E082169104A104B10410F482E00F
:1019400065C0FC01C081D1818B899C89AD89BE892C
:1019500088169906AA06BB0690F741155105610540
:10196000710541F00FEF1FEF9801CE010E94920721
:1019700081114CC0B501A401F701808191810E94C1
:1019800063032B013C01611571058105910511F47B
:1019900080E03CC0613071058105910581F26F3FA7
:1019A0007F4F8F4F9F4F89F100E010E09801B50104
:1019B000A401CE010E949207811128C08F859889C9
:1019C000A989BA894B895C896D897E894A015B0145
:1019D000E2E08E1A9108A108B10888159905AA05B8
:1019E000BB0550F40196A11DB11D8F87988BA98B63
:1019F000BA8B8C8181608C83530142014416550659
:101A00006606770608F4B6CFC3CF81E0DF91CF91A9
:101A10001F910F91FF90EF90BF90AF909F908F908C
:101A20007F906F905F904F9008950F931F93CF9387
:101A3000DF93EC010E946C02982F811161C08881B4
:101A4000833009F053C08C81813009F04FC0BE0152
:101A5000615D7F4FFB01CE01815D9D4F1192E817C3
:101A6000F907E1F785E5FE01E35DFD4F80838AEA32
:101A70003196808382E58FA788AB81E689AB91E4BC
:101A80009AAB22E77B97208331962083319690830F
:101A9000319680833F85288999898A893196308358
:101AA0003196208331969083319680833B852C85B7
:101AB0009D858E8531963083319620833196908333
:101AC000319680838B8D9C8DAD8DBE8D9C01AD013B
:101AD0002F5F3F4F4F4F5F4F2BA73CA74DA75EA7F0
:101AE00001E010E089810E94991B1C8240E050E0D7
:101AF00060E089810E940A1C91E0811101C090E0A0
:101B0000892FDF91CF911F910F9108951F93CF934C
:101B1000DF9300D000D000D0CDB7DEB79C838B839D
:101B20007E836D83142F7A836983CE0101960E9490
:101B30009F0197FD20C0880F991FFC01EE57FE4FB3
:101B40000190F081E02D309709F01082EB81FC814B
:101B5000309709F01082DC01AE57BE4FED93FC9335
:101B6000112359F040E0BE016D5F7F4FCE01059615
:101B70000E94FB0403C08BE001C080E026960FB6F4
:101B8000F894DEBF0FBECDBFDF91CF911F910895B6
:101B90004F925F926F927F928F929F92AF92BF927D
:101BA000CF92DF92EF92FF920F931F93CF93DF9329
:101BB000CDB7DEB7E0970FB6F894DEBF0FBECDBF4E
:101BC0007CA76BA7009709F45BC1142F7C01242F1D
:101BD0002F73C22E422FBE01675D7F4FCE018B96C1
:101BE0000E94FB04D82E811158C189A59AA59A8319
:101BF00089836BA57CA5CE0101960E94D30A811131
:101C000003C098A597FD86E0912F9C7109F46DC0E3
:101C1000882361F0843021F4CE0101960E942D0CBE
:101C20003C2D3860C32E882339F031C18D818171FC
:101C300009F02CC112FD26C1C3FE65C0EB8DFC8DE1
:101C40001686178692E3908B80E5818BEB8DFC8D59
:101C5000168A178A908F818FAB8CBC8C09A51AA528
:101C6000B501D8018C910E94FB012B013C0180E25F
:101C7000F5018387EB8DFC8D128E138ED8018C912C
:101C8000833011F4148A158AEB8DFC8D148E158E19
:101C9000168E178E81E0F80183834114510461048C
:101CA000710471F183A494A4A5A4B6A400E010E08B
:101CB0009801B301A201CE0101960E94860C811108
:101CC000E6C0B501A40189A59AA50E94F202E9A582
:101CD000FAA521E0421A510861087108438654862A
:101CE00065867686882351F0D2C08111D0C08D815F
:101CF00084FDCAC011FF02C080FDC8C0C3FE03C07E
:101D00003C2D3064C32E09A51AA5F80183A594A51E
:101D1000A5A5B6A5F701848F958FA68FB78FAB8C3D
:101D2000BC8CB1A2A0A2B501D8018C910E94FB018C
:101D30002B013C01F7016683778380879187C5017A
:101D40004C960E9462014B015C01D7011A966D937B
:101D50007D938D939C931D9711961C930E93F80180
:101D60008581968113969C938E9312971E96CC92A2
:101D70001E971F961C921F9758961D921D921D929A
:101D80001C925B97F701108A118A128A138AC5FE8A
:101D900080C081149104A104B10409F47AC0509662
:101DA0008D929D92AD92BC925397F8018185928558
:101DB000A0E0B0E09C01AD0169E0220F331F441F99
:101DC000551F6A95D1F72DA73EA74FA758AB8DA5F4
:101DD0009EA5AFA5B8A988159905AA05BB0500F56C
:101DE000B301A201D7018D919C910E9463032B0145
:101DF0003C012DA53EA54FA558A9821A930AA40A15
:101E0000B50A623071058105910540F06F3F7F4F43
:101E10008F4F9F4FE1F6DD24D39402C082E0D82E8D
:101E2000D70154964D925D926D927C925797D11046
:101E300034C0D501C4019170AA27BB27892B8A2BF6
:101E40008B2B39F1B301A20189A59AA50E947701D4
:101E50006115710581059105F1F029E0B694A7940B
:101E6000979487942A95D1F7DC01CB01880D991DB1
:101E7000AA1DBB1DF701808F918FA28FB38F09C060
:101E800089E00FC088E003C084E001C087E0D82E5D
:101E900004C080E006C092E0D92ED7011D921C92AA
:101EA0008D2DE0960FB6F894DEBF0FBECDBFDF914B
:101EB000CF911F910F91FF90EF90DF90CF90BF9047
:101EC000AF909F908F907F906F905F904F9008950C
:101ED0002F923F924F925F926F927F928F929F923A
:101EE000AF92BF92CF92DF92EF92FF920F931F9328
:101EF000CF93DF9300D000D0CDB7DEB77C014B018C
:101F00005A013C832B83F90111821082BE016F5F5D
:101F10007F4F0E94C601811112C1F701878581118F
:101F20000EC1868580FF0AC182859385A485B5850B
:101F30004089518962897389841B950BA60BB70B65
:101F4000A50160E070E084179507A607B70708F0C1
:101F50007BC05C0179C0F70180899189A289B3892E
:101F6000AC01BD01517066277727452B462B472BC7
:101F700009F0BBC0E981FA81018512850150110980
:101F8000AC01BD01E9E07695679557954795EA95CF
:101F9000D1F7042315230115110509F45AC029802E
:101FA0003A80F7014489558966897789C1010E9481
:101FB0007701611571058105910509F461C02B0157
:101FC0003C01400E511E611C711C6501CD2CDD24AD
:101FD000C694C114D10409F483C0F10181859285AE
:101FE00098012C0D3D1D8217930718F46C01C01A3F
:101FF000D10A8601A3019201B401F10181810E94FD
:102000004E1B811145C0E981FA81838181114AC04B
:10201000DC2CCC24DD0CAC18BD08EB81FC8180816C
:1020200091818C0D9D1D918380838C0C9D1CF701EB
:1020300080899189A289B3898C0D9D1DA11DB11D37
:10204000808B918BA28BB38BA114B10409F083CF49
:1020500073C0F701892B8A2B8B2B29F4668177813A
:102060008085918508C044895589668977898081F2
:1020700091810E946303623071058105910510F41E
:1020800082E007C06F3FFFEF7F078F079F0721F4B4
:1020900081E0F701878753C0F701648B758B868BCE
:1020A000978B7DCF83A594A5A5A5B6A58419950981
:1020B000A609B709A60160E070E084179507A60796
:1020C000B70708F0A5CFBF01615D7F4F982F882724
:1020D000990F40E052E0880D991D0E94F00198CFC1
:1020E000F701408E518E628E738EF701808991893F
:1020F000917020E032E0281B390B65012A153B0561
:1021000008F46901F701408D518D628D738D8981CD
:102110009A810E94F2028111BBCF69817A81615D4F
:102120007F4FF701808991899170680F791FA6010F
:10213000C4010E94F0016FCF80E001C087E00F90E2
:102140000F900F900F90DF91CF911F910F91FF9003
:10215000EF90DF90CF90BF90AF909F908F907F9047
:102160006F905F904F903F902F9008952F923F92E5
:102170004F925F926F927F928F929F92AF92BF9297
:10218000CF92DF92EF92FF920F931F93CF93DF9343
:1021900000D000D0CDB7DEB77C014B015A013C83A3
:1021A0002B83F90111821082BE016F5F7F4F0E9465
:1021B000C60181116FC1F701878581116BC18685C9
:1021C00081FF67C180899189A289B389AC01BD0172
:1021D0004A0D5B1D611D711D481759076A077B0772
:1021E00008F0BBC05C01A094B094B7C0F70180892F
:1021F0009189A289B389AC01BD0151706627772707
:10220000452B462B472B09F019C1E981FA8101853D
:10221000128501501109AC01BD01E9E07695679581
:1022200057954795EA95D1F7042315230115110514
:1022300009F498C089819A81FC0143A454A465A43F
:1022400076A4F701408D518D628D738D441655062D
:102250006606770609F4CEC069807A80F701448962
:10226000558966897789C3010E94770161157105D7
:102270008105910509F49FC01B012C01200E311E20
:10228000411C511C6501CD2CDD24C694C114D10420
:1022900009F4B6C0F3018185928598012C0D3D1D8E
:1022A0008217930718F46C01C01AD10A8601A201A3
:1022B0009101B401F30181810E94991B811183C0B6
:1022C00089819A81FC0143A554A565A576A542198B
:1022D000530964097509860120E030E04017510771
:1022E0006207730770F4542F4427550FB401640F2D
:1022F000751F40E052E08F960E94F001E981FA815B
:102300001382DC2CCC24DD0CAC18BD08EB81FC81E5
:10231000808191818C0D9D1D918380838C0C9D1CEF
:10232000F70180899189A289B3898C0D9D1DA11D1A
:10233000B11D808B918BA28BB38B428553856485B5
:102340007585481759076A077B0710F4AC01BD0172
:10235000F7014287538764877587A114B10409F098
:1023600045CF1EC0F701892B8A2B8B2B69F4668120
:102370007781808591856115710581059105B1F49D
:1023800040E050E0BA0104C04489558966897789E4
:10239000C7010E94AD08611571058105910531F4F1
:1023A000F70186858064868780E074C0613071059E
:1023B0008105910511F482E007C06F3FFFEF7F07B1
:1023C0008F079F0721F481E0F701878763C0F7013A
:1023D000648B758B868B978B468057806084718465
:1023E00045284628472809F025CF668377838087CC
:1023F000918720CF0E946C02882309F42DCFE3CF70
:10240000F701408951896289738982859385A48502
:10241000B585481759076A077B0758F0C3010E9422
:102420006C028111D0CFE981FA8123A634A645A69A
:1024300056A6F701208E318E428E538EF701808989
:102440009189917020E032E0281B390B65012A1533
:102450003B0508F46901F701408D518D628D738D44
:1024600089819A810E94F2028111ADCF29813A813E
:10247000215D3F4FF701808991899170A601B401D8
:10248000820F931F0E94F001E981FA8121E02383EA
:102490003BCF87E00F900F900F900F90DF91CF917F
:1024A0001F910F91FF90EF90DF90CF90BF90AF9072
:1024B0009F908F907F906F905F904F903F902F9064
:1024C0000895EF92FF920F931F93CF93DF9300D065
:1024D000CDB7DEB77C01BE016F5F7F4F0E94C601A2
:1024E00081113CC0F701968596FF38C0448D558D0B
:1024F000668D778D89819A810E94F20281112EC0AA
:10250000F70100A111A1F801838580628387F7019B
:102510002681378140855185B801808191810E9453
:102520001002F7013285238594858585F801348F63
:10253000258F968F878F168A178A82E3808F80E592
:10254000818F128A138A89819A8121E0FC01238379
:102550000E94150DF70196859F7B96870F900F902F
:10256000DF91CF911F910F91FF90EF9008950F93FE
:102570001F93CF93DF9300D0CDB7DEB78C010E94BD
:10258000611281110BC0BE016F5F7F4FC8010E94B5
:10259000C601811103C0F801118210820F900F90C3
:1025A000DF91CF911F910F9108954F925F926F929B
:1025B0007F928F929F92AF92BF92CF92DF92EF92D3
:1025C000FF920F931F93CF93DF9300D000D000D0E2
:1025D000CDB7DEB78C016A017B01BE016F5F7F4F13
:1025E0000E94C601811164C1D8011F968C911F976A
:1025F00081115EC11A968D919D910D90BC91A02D77
:102600008C159D05AE05BF0530F4F801268521FD2A
:1026100002C06C017D01D80150968D909D90AD90C7
:10262000BC905397F801108A118A128A138AC11438
:10263000D104E104F10409F434C1E981FA8181850E
:102640009285A0E0B0E02C013D0139E0440C551C1E
:10265000661C771C3A95D1F781149104A104B1044A
:1026600009F43FC0F1E08F1A9108A108B108C70131
:10267000B6016150710981099109A30192010E947B
:10268000B81E2B833C834D835E83C501B401A30137
:1026900092010E94B81E8B819C81AD81BE81821700
:1026A0009307A407B507E8F088279927DC01841968
:1026B0009509A609B70988229922AA22BB22D80126
:1026C00050968D929D92AD92BC925397C818D9089E
:1026D000EA08FB0854964D915D916D917C91579756
:1026E00032C0F801468157816085718541155105D9
:1026F0006105710519F540E050E0BA01C8010E947A
:10270000AD08AB01BC01413051056105710529F4EB
:1027100082E0D8011F968C93CBC04F3FBFEF5B0781
:102720006B077B0721F481E0F8018787C1C0D801DE
:1027300016964D935D936D937C931997F801448B96
:10274000558B668B778B411551056105710509F035
:102750003FC0C12CD12C760178C0C418D508E6083A
:10276000F708F80180899189A289B389840D951DA4
:10277000A61DB71D808B918BA28BB38B868581FFA5
:102780002EC0C8010E94AD08AB01BC014115510526
:102790006105710559F14F3FBFEF5B076B077B0781
:1027A00011F2423051056105710508F4B1CFE9819C
:1027B000FA8183899489A589B689481759076A07D8
:1027C0007B0708F0A5CFF801448B558B668B778B80
:1027D0004C145D046E047F0408F4BFCF0AC08081EE
:1027E00091810E946303AB01BC01D5CFC12CD12CD8
:1027F0007601F80180899189A289B3898C0D9D1D8C
:10280000AE1DBF1D808B918BA28BB38BD701C601F0
:102810009170AA27BB27892B8A2B8B2B09F499CF80
:1028200089819A810E947701611571058105910561
:1028300009F46ECF29E0F694E794D794C7942A95CB
:10284000D1F7C60ED71EE81EF91EF80180899189BE
:10285000A289B389428553856485758548175907D0
:102860006A077B0738F482879387A487B587268514
:10287000206426879170AA27BB27892B8A2B8B2B54
:1028800071F0F801808D918DA28DB38D8C159D0511
:10289000AE05BF0521F0C08ED18EE28EF38E80E0B2
:1028A00007C080E090E0DC01C12CD12C7601E2CFA2
:1028B00026960FB6F894DEBF0FBECDBFDF91CF9145
:1028C0001F910F91FF90EF90DF90CF90BF90AF904E
:1028D0009F908F907F906F905F904F9008950F938F
:1028E0001F93CF93DF9300D000D0CDB7DEB77C83AA
:1028F0006B830097D9F18C0140E0BE016F5F7F4F81
:10290000CE0103960E94FB0481112CC089819A811B
:10291000F801918380836B817C81C8010E94D30A76
:1029200081112AC0F80187A187FD0FC0848184FF2F
:1029300018C0628D738DE981FA8180810E94FB014C
:10294000F8016683778380879187E981FA818581A1
:102950009681F80193838283C8010E942304843006
:1029600039F485E0F8011182108209C089E007C0BE
:102970008111F8CF80E003C0843099F3F3CF0F903A
:102980000F900F900F90DF91CF911F910F910895AD
:102990000F931F93CF93DF9300D0CDB7DEB78C0199
:1029A000BE016F5F7F4F0E94C601811103C0F80115
:1029B000118210820F900F90DF91CF911F910F9194
:1029C0000895CF92DF92FF920F931F93CF93DF93DF
:1029D00000D0CDB7DEB78C016B01BE016F5F7F4FBA
:1029E0000E94C601F82E811123C0C801C114D10470
:1029F00019F40E9423041BC00E94EE0B982F9B7FAA
:102A0000B1F4F6011186F80186899789A08DB18D00
:102A1000892B8A2B8B2B21F0B601C8010E941D0245
:102A200060E070E0C8010E94EE09843009F0F82EE1
:102A30008F2D0F900F90DF91CF911F910F91FF90ED
:102A4000DF90CF900895EF92FF921F93CF93DF9383
:102A5000CDB7DEB7AA970FB6F894DEBF0FBECDBFD5
:102A60009AA789A77B0140E0BE016F5F7F4FCE012F
:102A700089960E94FB04182F811120C069A57AA5B0
:102A8000CE0101960E94D30A182F811117C088A584
:102A900087FD13C0E114F10489F0F70111868F89D5
:102AA000988DA98DBA8D892B8A2B8B2B39F0B70184
:102AB000CE0101960E941D0201C016E0812FAA9648
:102AC0000FB6F894DEBF0FBECDBFDF91CF911F913F
:102AD000FF90EF9008952F923F924F925F926F92E6
:102AE0007F928F929F92AF92BF92CF92DF92EF929E
:102AF000FF920F931F93CF93DF93CDB7DEB7299744
:102B00000FB6F894DEBF0FBECDBF9C838B831B0135
:102B10007A0140E0BE016F5F7F4FCE0103960E94B5
:102B2000FB048D838111BDC009811A81D7010D93EA
:102B30001C93F80187859089A189B28943885488BC
:102B400065887688B301A201425051096109710973
:102B5000481759076A077B0730F0F101808391839A
:102B6000A283B3839EC080818130A1F582E0482E8C
:102B7000512C612C712CC12CD12C7601B301A201F6
:102B8000C8010E9463036F3FBFEF7B078B079B0762
:102B900009F471C0613071058105910509F46EC0B9
:102BA000672B682B692B29F4EFEFCE1ADE0AEE0AA9
:102BB000FE0AFFEF4F1A5F0A6F0A7F0AE981FA8166
:102BC00083899489A589B689481659066A067B06C1
:102BD000A8F258C0878C90A0A1A0B2A000E010E09D
:102BE000C12CD12C760101151105A9F4D501C40120
:102BF0000196A11DB11D8E839F83A887B987B5015A
:102C0000A40189819A810E94F20281113AC08E80CA
:102C10009F80A884B984E981FA818081823071F42F
:102C2000E00FF11F87A590A9892B29F49FEFC91AFE
:102C3000D90AE90AF90A0E5F1F4F14C0CF018F9617
:102C4000800F911F0E946201DC01CB01BF70892BB4
:102C50008A2B8B2B29F4AFEFCA1ADA0AEA0AFA0A8E
:102C60000C5F1F4F1170B1E04B1A510861087108D9
:102C700009F0B9CF07C0E1E0ED8304C0F2E0FD83C5
:102C800001C08D83D101CD92DD92ED92FC9213971C
:102C9000E981FA81C786D08AE18AF28A84818160DB
:102CA00084838D8129960FB6F894DEBF0FBECDBF09
:102CB000DF91CF911F910F91FF90EF90DF90CF9018
:102CC000BF90AF909F908F907F906F905F904F904C
:102CD0003F902F900895EF92FF920F931F93CF9301
:102CE000DF9300D0CDB7DEB77C01BE016F5F7F4FB1
:102CF0000E94C60181116CC0F7011785111163C0D4
:102D0000868581FF62C080899189A289B3894285C5
:102D100053856485758584179507A607B70708F05E
:102D200056C0892B8A2B8B2B89F44681578160856D
:102D3000718500E010E09801C7010E94860C182FF1
:102D4000F70116821782108611862EC0F70144897A
:102D5000558966897789808191810E946303AB01DF
:102D6000BC014F3FFFEF5F076F077F0739F041302E
:102D700051056105710521F412E016C011E014C07F
:102D8000E981FA8183899489A589B6894817590709
:102D90006A077B0748F4F701048915892689378972
:102DA000C7010E94860C182FF70180899189A2899A
:102DB000B38982879387A487B58786858064868751
:102DC000112329F01787812F03C087E001C080E01D
:102DD0000F900F90DF91CF911F910F91FF90EF9087
:102DE0000895BF92CF92DF92EF92FF920F931F93BD
:102DF000CF93DF93CDB7DEB7C455D1090FB6F894A2
:102E0000DEBF0FBECDBF65969FAF8EAF659742E028
:102E1000BE016F5A7F4FCE018D5A9F4F0E94FB0417
:102E200081116EC063968EAD9FAD63979AA789A7F7
:102E300065966EAD7FAD6597CE0189960E94D30AE7
:102E400081115EC061968FAD619787FD28C0BDA4DA
:102E5000B0FC27C063960EAD1FAD639725966EAD8F
:102E60007FAD2597F80180810E94FB016B017C01F9
:102E7000B4FE19C01A830983CF82D886E986FA8600
:102E8000CE0101960E94230481113AC0CE01019621
:102E90000E94EE0B882329F0843029F031C086E0AF
:102EA0002FC087E02DC009A51AA523964CAD5DADB6
:102EB0006EAD7FAD2397C8010E94F202811120C040
:102EC0002596EEADFFAD259785EE808381E0F80174
:102ED0008383C114D104E104F10439F463968EAD07
:102EE0009FAD63970E94150D0BC000E010E09801A4
:102EF000B701A601CE0189960E94860C882371F342
:102F0000CC5ADF4F0FB6F894DEBF0FBECDBFDF91B6
:102F1000CF911F910F91FF90EF90DF90CF90BF90D6
:102F200008958F929F92AF92BF92DF92EF92FF929D
:102F30000F931F93CF93DF93CDB7DEB7EA970FB60A
:102F4000F894DEBF0FBECDBF9AAF89AF42E0BE019D
:102F5000695C7F4FCE01C9960E94FB04F82E811157
:102F6000AEC08FA998AD9A83898369AD7AADCE0141
:102F700001960E94D30AF82E882331F184E0F812DA
:102F80009EC08FA998AD9AA789A740E050E0BA01EA
:102F9000CE0189960E94AD084B015C016115710557
:102FA00081059105A1F0613071058105910591F4CC
:102FB00082E0F82E00E010E09801B501A401CE01F6
:102FC00089960E94860C7BC028E0F22E78C097E09C
:102FD000F92EF0CF6F3F7F4F8F4F9F4F09F46CC09A
:102FE000B501A4018FA998AD0E94A204F82E811109
:102FF000E1CF8FA998ADFC01BF96CA9620E221933C
:10300000E817F907E1F78FA998AD1EE2FC0117A7B1
:1030100000E102AFEB5BFF4F1082319610823196D8
:1030200032E3D32ED082319640E5E42EE082BC011B
:10303000615D7F4FA50194010E9410028FA998AD98
:10304000BC01615D7F4F40E250E0815B9F4F0E9479
:10305000F0018FA998ADFC01E05BFF4F10832F8139
:10306000388549855A85BC01615B7F4F0E941002FB
:10307000EFA9F8AD11E01383CE0101960E942D0C4B
:10308000F82E811197CFEB8DFC8D168A178AD08E82
:10309000E18E6B8D7C8DA50194018FA998AD0E9466
:1030A0001002EB8DFC8D03878FA998ADFC01138373
:1030B0000E94150DF82E03C0FF24F3947BCF8F2DB3
:1030C000EA960FB6F894DEBF0FBECDBFDF91CF9169
:1030D0001F910F91FF90EF90DF90BF90AF909F9066
:1030E0008F900895DF92EF92FF920F931F93CF93EB
:1030F000DF93CDB7DEB7C657D1090FB6F894DEBF60
:103100000FBECDBFE5969FAF8EAFE597E7967FAF39
:103110006EAFE797CE018B589F4F0E949F0142E010
:10312000BE016F587F4FCE018D589F4F0E94FB0408
:103130008111DAC0E3968EAD9FADE3979AA789A778
:10314000E5966EAD7FADE597CE0189960E94D30AD4
:103150008111CAC061968FAD6197807A09F0A2C0D3
:1031600025966EAD7FAD259740E250E0CE018F5A97
:103170009F4F0E94F00148E250E0BE01675D7F4F23
:10318000CE0101960E94F001E7966EAD7FADE79704
:10319000CE0101960E94D30A81111DC04F8158852E
:1031A00069857A858FA598A9A9A9BAA94817590749
:1031B0006A077B0709F095C04F85588969897A8924
:1031C0008FA998ADA9ADBAAD481759076A077B0713
:1031D00009F087C003C0843009F086C0CE01019693
:1031E0000E942D0C811180C00B8D1C8D61E570E05B
:1031F0006C0F7D1F635F7F4F43E150E0C8010D9668
:103200000E94F0016D968FAD6D9784FF8062F8018A
:103210008387E396EEACFFACE397DD24D394F7010C
:10322000D382F801838584FF3FC04FA558A969A9BF
:103230007AA98F819885A985BA85481759076A07A1
:103240007B0791F1B801F70180810E94FB01AB017E
:10325000BC01C7010E947701AB01BC0141155105BA
:103260006105710509F43FC0C7010E94F202811196
:103270003BC0E3968EAD9FADE397FC01E05BFF4F53
:1032800020812E3289F42F81388549855A85BC01E9
:10329000615B7F4F0E941002E396EEADFFADE397B6
:1032A000D38202C086E020C009A51AA523964CADA2
:1032B0005DAD6EAD7FAD2397C8010E94F202811112
:1032C00013C02596EEADFFAD259785EE808381E096
:1032D000F8018383E3968EAD9FADE3970E94150DB1
:1032E00003C088E001C082E0CA58DF4F0FB6F894EF
:1032F000DEBF0FBECDBFDF91CF911F910F91FF9029
:10330000EF90DF9008951DB887B38F7487BBC49882
:1033100008958FB9779BFECF8FB10895C49A8FEF30
:103320000C9489190F931F93CF93DF938C01EB01BA
:1033300084E1809386018FEF0E9489198F3F29F4E1
:10334000809186018111F7CF1BC08E3FC9F4F8012F
:103350008FEF8FB9779BFECF9FB190838FB9779B0B
:10336000FECF9FB1918322973296209791F78FEFEE
:103370000E9489198FEF0E94891981E090E002C0B4
:1033800080E090E0DF91CF911F910F91089582E34B
:10339000809385018FEF0E948919282F8F3F21F09C
:1033A000809185018111F6CF81E090E02F3F11F0EF
:1033B00080E090E00895CF93DF93C4988FEF0E9450
:1033C00089190E94C719EC01892B19F40E948E19E2
:1033D00002C0C1E0D0E0CE01DF91CF910895FF920D
:1033E0000F931F93CF93DF93C82FD42F152F062F42
:1033F000F72E87FF09C040E050E0BA0187E30E9442
:10340000EF198230A8F5CF77CC3099F48C2F8064F7
:103410000E9489198F2D0E948919802F0E94891975
:10342000812F0E9489198D2F0E948919CC23F1F0D8
:1034300008C00E948E190E94DB19892B39F78FEF83
:1034400017C0C83011F487E801C081E00E948919D3
:10345000CC3019F48FEF0E948919CAE08FEF0E94D7
:10346000891987FF05C0C150C9F702C085E9F3CFAC
:10347000DF91CF911F910F91FF9008951F93CF93EC
:10348000DF93182FD92FC62F0E94C719009749F133
:103490008C2F0E948919CD3F11F1E12FFD2FCF0113
:1034A0009E5F20812FB9779BFECF21812FB9779B1B
:1034B000FECF3296E817F907A1F78FEF0E9489191E
:1034C0008FEF0E9489198FEF0E9489198F7131E067
:1034D00020E0853009F030E0832F922F02C081E098
:1034E00090E0DF91CF911F910895CF92DF92EF92FC
:1034F000FF920F931F93CF93DF9300D000D0CDB7EF
:10350000DEB78111B6C00E94831980916E0081FDE3
:10351000ADC087B3806B87BBC49A87B3897F87BBF5
:1035200081E58DB98BE983BD8FE085BD89B7806862
:1035300089BF789482E58DB91AE08FEF0E948919CE
:103540001150D9F740E050E0BA0180E00E94EF1935
:10355000813009F078C084E6809386014AEA51E020
:1035600060E070E088E00E94EF19813009F043C00C
:103570008E010F5F1F4F6E0185E0C80ED11C7801D0
:103580008FEF0E948919F70181937F01CE16DF0624
:10359000B9F78B81813009F056C08C818A3A09F0E5
:1035A00052C080918601811106C0809186018823D6
:1035B00009F449C00AC040E050E060E070E489EAE4
:1035C0000E94EF198111EDCFF0CF40E050E0BA0139
:1035D0008AE30E94EF19811136C08FEF0E9489198A
:1035E000F80181938F01CE16DF06B9F7898186FD38
:1035F0002CC014E02BC040E050E0BA0189EA0E94E0
:10360000EF19823018F011E001E002C012E009EA7F
:1036100080918601811105C080918601882399F0EF
:1036200009C040E050E0BA01802F0E94EF198111DB
:10363000EFCFF2CF40E052E060E070E080E10E9426
:10364000EF19882319F010E001C01CE010938401E9
:103650000E948E19112341F080916E008E7F80931D
:103660006E0080E58DB902C00E94831980916E00C2
:1036700001C081E00F900F900F900F90DF91CF91DC
:103680001F910F91FF90EF90DF90CF9008958111DF
:1036900003C080916E00089581E00895EF92FF923B
:1036A0000F931F93CF937B01BA01A901811138C0F9
:1036B00001151105A9F180916E0080FD33C0809144
:1036C000840183FD07C089E0440F551F661F771FE3
:1036D0008A95D1F70230110510F4C1E101C0C2E1B1
:1036E0008C2F0E94EF19811114C060E072E0C701B5
:1036F0000E949219892B29F08EEFF81A01501109B6
:10370000A1F7C23131F440E050E0BA018CE00E94F0
:10371000EF190E948E1981E0012B29F480E003C08B
:1037200084E001C083E0CF911F910F91FF90EF9053
:103730000895CF92DF92EF92FF920F931F93CF9352
:10374000DF93EB0169017A01811156C00115110562
:1037500009F452C080916E0080FD50C080916E00CF
:1037600082FD4EC08091840183FD07C099E0CC0C9E
:10377000DD1CEE1CFF1C9A95D1F70130110599F460
:10378000B701A60188E10E94EF1981112CC06EEFEC
:10379000CE010E943E1A31E020E0892B09F030E092
:1037A000032F122F22C0867031F0A80160E070E074
:1037B00087E90E94EF19B701A60189E10E94EF197C
:1037C000811113C06CEFCE010E943E1A892B21F0AB
:1037D000DE5F01501109B1F76DEF80E090E00E94CB
:1037E0003E1A892B11F401E010E00E948E1981E04D
:1037F000012B39F480E005C084E003C083E001C000
:1038000082E0DF91CF911F910F91FF90EF90DF90B9
:10381000CF900895EF92FF920F931F93CF93DF9372
:10382000CDB7DEB760970FB6F894DEBF0FBECDBF41
:10383000811134C180916E0080FD32C18A01862FD2
:1038400090E08F30910508F024C1FC01E65DFF4F48
:103850000C94DA1E0E94DB1918C140E050E0BA0156
:1038600089E00E94EF19882311F011E013C160E193
:1038700070E0CE0101960E949219892BB1F39981D3
:10388000929596959695937029854A85888591306D
:10389000D9F430E0322F2227240F311D8F7390E0AE
:1038A000A0E0B0E0DC01992788270196A11DB11D99
:1038B000820F931FA11DB11DFAE0880F991FAA1F47
:1038C000BB1FFA95D1F758C02295269526952370EF
:1038D000F4E08F9FC0011124820F911D01962F816A
:1038E000237030E0322F2227330F330F820F931FC4
:1038F000A0E0B0E02E81322F3F702B85221F2227BF
:10390000221F230F4370440F420F475004C0880FFB
:10391000991FAA1FBB1F4A95D2F72EC0F0908401B1
:1039200040E050E0BA01F2FE2EC08DE80E94EF198F
:1039300081119BCF8FEF0E94891960E170E0CE0169
:1039400001960E949219892B09F48FCF50E3F52E2E
:103950008FEF0E948919FA94F110FACF2B852295E6
:103960002F7080E190E0A0E0B0E004C0880F991FC4
:10397000AA1FBB1F2A95D2F7F80180839183A283E7
:10398000B38310E087C089E00E94EF1981116DCFE9
:1039900060E170E0CE0101960E949219892B09F432
:1039A00064CF2B858C85F1FE16C0881F8827881F61
:1039B00090E001962F73820F911D820F911D2E852D
:1039C0002295269526952370215002C0880F991FB5
:1039D0002A95E2F71CC0382F337082958695877040
:1039E00090E0F8E03F9F800D911D112401962C7707
:1039F00030E035952795359527952F5F3F4F829F6E
:103A0000A001839F500D929F500D1124CA01A0E088
:103A1000B0E0B2CF80918401FA018083B2CF40E060
:103A200050E0BA0189E004C040E050E0BA018AE009
:103A30000E94EF19811119CF60E170E023C040E0CE
:103A400050E0BA018AE30E94EF1981110ECF78018C
:103A5000F4E0EF0EF11C8FEF0E948919F8018193B9
:103A60008F01EE15FF05B9F78CCF40E050E0BA01A9
:103A70008DE80E94EF198111F8CE8FEF0E9489190D
:103A800060E470E0C8010E94921911E0892B11F0E6
:103A900078CF14E00E948E19812F03C084E001C00A
:103AA00083E060960FB6F894DEBF0FBECDBFDF9106
:103AB000CF911F910F91FF90EF9008958091860113
:103AC000882319F081508093860180918501882395
:103AD00019F081508093850180916E00897F8093D9
:103AE0006E0008951F920F920FB60F9211242F931C
:103AF0003F934F935F936F937F938F939F93AF9376
:103B0000BF93EF93FF930E945E1DFF91EF91BF91D2
:103B1000AF919F918F917F916F915F914F913F9165
:103B20002F910F900FBE0F901F9018950E94B80014
:103B300080E00E94FA0041E068E571E08DE991E0E3
:103B40000E94860D8093E20360E0811107C00E940D
:103B5000DB0060E670E08FEE90E007C080E00E943E
:103B6000DB0060E670E08BEF90E00E940C1F2FEF0F
:103B700087EA91E6215080409040E1F700C00000C4
:103B80008091E3031F928F9383E091E09F938F9343
:103B90008CEC93E09F938F930E94361F67E871E04F
:103BA0008CEC93E00E9423158093E2030F900F901A
:103BB0000F900F900F900F90C3E0D1E00CEC13E04A
:103BC0008091E20381111CC08091E3038F5F809399
:103BD000E3031F928F93DF93CF931F930F930E9462
:103BE000361F67E871E08CEC93E00E942315809308
:103BF000E2030F900F900F900F900F900F90E0CF77
:103C00004AE06CEC73E084EE93E00E94C80D809370
:103C1000E20360E0811107C00E94DB0060E670E013
:103C20008EE091E007C080E00E94DB0060E670E07B
:103C300085E291E00E940C1F979A1092E30391E7AE
:103C4000892E92E0992E2FED522E3AE3A32E31E0E9
:103C5000B32E40E6C42E40E0D42E5BE4652E51E046
:103C6000752E6CECE62E63E0F62E0E9404018CECBF
:103C70000E94450184E40E9445019FEF23ED80E30B
:103C8000915020408040E1F700C000000E940401F4
:103C90008CEC0E9445018EEB0E9445010E9453016D
:103CA000C82F0E945301D0E0D82BCE018F709927E6
:103CB000889D8001899D100D989D100D112461E053
:103CC00080E00E94DB0084E0D695C7958A95E1F7F5
:103CD000DD271F925F921F930F93DF93CF93BF92C5
:103CE000AF92DF92CF920E94FA1E1F930F93DF9341
:103CF000CF938091E3031F928F937F926F92FF92F5
:103D0000EF920E94361FF70101900020E9F73197EA
:103D1000AF014C5C534020EE33E06CEC73E084EE7A
:103D200093E00E94B6108091E3038F5F8093E303DA
:103D30008DB79EB744960FB6F8949EBF0FBE8DBF49
:103D4000879993CF84EE93E00E94B71240E068E534
:103D500071E080E090E00E94860D60E080E00E94CB
:103D6000DB0060E670E089E591E00E940C1FFFCF68
:103D7000A1E21A2EAA1BBB1BFD010DC0AA1FBB1F6F
:103D8000EE1FFF1FA217B307E407F50720F0A21BE1
:103D9000B30BE40BF50B661F771F881F991F1A944E
:103DA00069F760957095809590959B01AC01BD0178
:103DB000CF010895EE0FFF1F0590F491E02D0994B7
:103DC0000E94EB1EA59F900DB49F900DA49F800DA7
:103DD000911D11240895A29FB001B39FC001A39F1C
:103DE000700D811D1124911DB29F700D811D112434
:103DF000911D0895A0E0B0E0E0E0FFE10C94F9210E
:103E0000AE01475F5F4F6F8178858D819E810E94F3
:103E1000581FE2E00C941522EF92FF920F931F932C
:103E2000CF93DF93DB0113962C9121FF18C08B01F8
:103E30007C01D0E0C0E0F70181917F01882361F02F
:103E4000D8011896ED91FC911997B8010995892B25
:103E500091F3DFEFCFEFEFCF8D2F9C2F02C08FEFCD
:103E60009FEFCDB7DEB7E6E00C941122AEE0B0E0F4
:103E7000ECE3FFE10C94F7210D891E8986E08C8329
:103E80001A8309838FEF9FE79E838D83AE01475E80
:103E90005F4F6F89788DCE0101960E94581FEF8188
:103EA000F885E00FF11F10822E96E4E00C941322A7
:103EB000ABE0B0E0EEE5FFE10C94E9216C017B01A1
:103EC0008A01FC0117821682838181FFCCC1CE0159
:103ED00001963C01F6019381F70193FD859193FFD3
:103EE00081917F01882309F4BAC1853239F493FDA9
:103EF000859193FF81917F01853229F4B60190E08D
:103F00000E944F21E7CF912C212C312CFFE1F3159A
:103F1000D8F08B3279F038F4803279F08332A1F422
:103F2000232D20611DC08D3261F0803369F4232D73
:103F3000216016C0832D8260382EE32DE4603E2E72
:103F40002AC0F32DF8601DC037FC2DC020ED280FCE
:103F50002A3040F08E32B9F436FC81C1232D206422
:103F6000322E19C036FE06C08AE0989E200D11241C
:103F7000922E11C0EAE02E9E200D1124222EF32D48
:103F8000F0623F2E08C08C3621F4832D8068382ED5
:103F900002C0883641F4F70193FD859193FF81912A
:103FA0007F018111B3CF982F9F7D9554933028F4D2
:103FB0000C5F1F4F9FE399830DC0833631F0833729
:103FC00071F0833509F059C021C0F80180818983DF
:103FD0000E5F1F4F88248394912C530113C0280136
:103FE000F2E04F0E511CF801A080B18036FE03C0F4
:103FF000692D70E002C06FEF7FEFC5010E94442180
:104000004C018201F32DFF773F2E16C0280122E0DC
:10401000420E511CF801A080B18036FE03C0692D0C
:1040200070E002C06FEF7FEFC5010E9439214C01A3
:10403000F32DF0683F2E820133FC1BC0822D90E0EF
:1040400088169906B0F4B60180E290E00E944F21F4
:104050002A94F4CFF50137FC859137FE81915F01F9
:10406000B60190E00E944F2121102A9421E0821A8B
:1040700091088114910471F7E8C0843611F08936F3
:1040800041F5F80137FE07C060817181828193811B
:104090000C5F1F4F08C060817181072E000C880BD8
:1040A000990B0E5F1F4FF32DFF763F2E97FF09C030
:1040B00090958095709561957F4F8F4F9F4FF068D9
:1040C0003F2E2AE030E0A3010E948B21882E861823
:1040D00045C0853731F4232D2F7EB22E2AE030E003
:1040E00025C0932D997FB92E8F36C1F018F48835ED
:1040F00079F0B5C0803719F0883721F0B0C0E92FCA
:10410000E061BE2EB4FE0DC0FB2DF460BF2E09C0D1
:1041100034FE0AC0292F2660B22E06C028E030E007
:1041200005C020E130E002C020E132E0F801B7FE36
:1041300007C060817181828193810C5F1F4F06C02F
:104140006081718180E090E00E5F1F4FA3010E94AB
:104150008B21882E8618FB2DFF773F2E36FE0DC053
:10416000232D2E7FA22E891458F434FE0BC032FC6E
:1041700009C0832D8E7EA82E05C0B82CA32C03C0A9
:10418000B82C01C0B92CA4FE0FC0FE01E80DF11D32
:104190008081803321F49A2D997EA92E09C0A2FE38
:1041A00006C0B394B39404C08A2D867809F0B39402
:1041B000A3FC11C0A0FE06C0B21488F4280C922CF7
:1041C0009B180EC0B21460F4B60180E290E00E9429
:1041D0004F21B394F7CFB21418F42B1802C0982CC7
:1041E000212CA4FE10C0B60180E390E00E944F2174
:1041F000A2FE17C0A1FC03C088E790E002C088E5DA
:1042000090E0B6010CC08A2D867859F0A1FE02C05C
:104210008BE201C080E2A7FC8DE2B60190E00E9433
:104220004F21891438F4B60180E390E00E944F21B9
:104230009A94F7CF8A94F301E80DF11D8081B601BD
:1042400090E00E944F218110F5CF222009F442CE48
:10425000B60180E290E00E944F212A94F6CFF60149
:104260008681978102C08FEF9FEF2B96E2E10C943D
:104270000522FC010590615070400110D8F780952F
:1042800090958E0F9F1F0895FC0161507040019022
:104290000110D8F7809590958E0F9F1F08950F936A
:1042A0001F93CF93DF93FB01238121FD03C08FEF89
:1042B0009FEF2CC022FF16C0468157812481358193
:1042C0004217530744F4A081B1819D012F5F3F4FF6
:1042D000318320838C93268137812F5F3F4F378333
:1042E000268314C08B01EC01FB010084F185E02DD5
:1042F0000995892BE1F6D80116968D919C91179717
:10430000019617969C938E931697CE01DF91CF91CD
:104310001F910F910895FA01AA27283051F12031F9
:1043200081F1E8946F936E7F6E5F7F4F8F4F9F4F49
:10433000AF4FB1E03ED0B4E03CD0670F781F891F8B
:104340009A1FA11D680F791F8A1F911DA11D6A0F59
:10435000711D811D911DA11D20D009F468943F910C
:104360002AE0269F11243019305D3193DEF6CF010B
:104370000895462F4770405D4193B3E00FD0C9F7D1
:10438000F6CF462F4F70405D4A3318F0495D31FD3E
:104390004052419302D0A9F7EACFB4E0A695979591
:1043A000879577956795BA95C9F700976105710567
:1043B00008959B01AC010A2E0694579547953795B1
:1043C0002795BA95C9F7620F731F841F951FA01D0B
:1043D00008952F923F924F925F926F927F928F92A9
:1043E0009F92AF92BF92CF92DF92EF92FF920F9384
:1043F0001F93CF93DF93CDB7DEB7CA1BDB0B0FB68E
:10440000F894DEBF0FBECDBF09942A88398848884A
:104410005F846E847D848C849B84AA84B984C884E0
:10442000DF80EE80FD800C811B81AA81B981CE0FD7
:10443000D11D0FB6F894DEBF0FBECDBFED010895BC
:04444000F894FFCF1E
:104444000000000200000000F500000000000180F0
:104454009A90B68EDE8F809DD38A8AD78D8E8F9068
:104464009191E29995959797999A9B9B9D9EACB54E
:10447400D6E0E9A4A4A6A6A8A8AA8DACB8AEAFB00D
:10448400B1B2B3B4B5B6B7B8B9BABBBCBDBDBFC0A1
:10449400C1C2C3C4C5C6C6C8C9CACBCCCDCECFD190
:1044A400D1D2D3D2D5D6D7B7D9DADBDCDDDEDFE0A3
:1044B400E1E2E3E3D5E6E6E8E9E8EBEDEDDDEFF094
:1044C400F1F2F3F4F5F6F7F8F9FAEBFCFCFEFF5A17
:1044D400616D6F6E746F77616E6F004B6C6F706F90
:1044E4007479006461746125642E74787400577A59
:1044F4006965746F206F74776172746F20706C6972
:104504006B20633A004E6965206F74776172746F33
:1045140020706C696B75203A630054203D2025643B
:104524002E2530346420256320430025642009208F
:1045340025642E253034640A005A65676E616A2E3C
:104544002E2E2E203A630046415433322020200080
:10455400222A2B2C3A3B3C3D3E3F5B5D7C7F000096
:00000001FF
