:100000000C942A000C9434000C9434000C943400AA
:100010000C9434000C9434000C9434000C94340090
:100020000C9434000C9434000C9434000C94340080
:100030000C9434000C9434000C9434000C94340070
:100040000C9434000C9434000C9434000C94340060
:100050000C94340011241FBECFE5D8E0DEBFCDBF25
:100060000E9436000C9446000C9400008FEF84BB75
:1000700091E085B3892785BB2FEF33ED80E32150D5
:1000800030408040E1F700C00000F3CFF894FFCF8C
:00000001FF
