:100000000C9430000C944D000C944D000C944D0059
:100010000C944D000C944D000C944D000C944D002C
:100020000C944D000C944D000C944D000C944D001C
:100030000C944D000C944F000C944D000C944D000A
:100040000C944D000C944D000C944D000C944D00FC
:100050000C944D00416C61206D61206B6F746100E8
:1000600011241FBECFE5D8E0DEBFCDBF10E0A0E673
:10007000B0E0E4E4FFE002C005900D92AA3DB107B4
:10008000D9F720E0AAEDB0E001C01D92AB3EB20767
:10009000E1F70E94EB010C94A0070C9400001F9262
:1000A0000F920FB60F9211242F933F934F935F93AC
:1000B0006F937F938F939F93AF93BF93EF93FF9330
:1000C0008091DB009CB1E82FF0E0E252FF4F90837B
:1000D0009A3009F053C08091EA0081111FC08EED63
:1000E00090E00E9476048093DC0099279F938F9381
:1000F0008CE790E09F938F9380E690E09F938F939F
:100100000E949C0460E670E087E890E00E94AE04E4
:100110000F900F900F900F900F900F908091EA002A
:100120008130F9F48EED90E00E9476048093DD003A
:1001300099279F938F9384E990E09F938F9380E614
:1001400090E09F938F930E949C0460E670E08FE99B
:1001500090E00E94AE040F900F900F900F900F90C0
:100160000F908091EA00813019F41092EA0003C0E8
:100170008F5F8093EA001092DB0003C08F5F809353
:10018000DB00FF91EF91BF91AF919F918F917F9194
:100190006F915F914F913F912F910F900FBE0F90F4
:1001A0001F901895DA98DB9A9BB3282F207F9F70B9
:1001B000922B9BBBEFE9FFE03197F1F700C0000005
:1001C000DB98EFE9FFE03197F1F700C00000DB9A20
:1001D0002BB3F0E18F9FC0011124922F9F70892BC8
:1001E0008BBB8FE99FE00197F1F700C00000DB981F
:1001F000EFE9FFE03197F1F700C000000895DA9AC7
:10020000DB9A9BB3282F207F9F70922B9BBBEFE93B
:10021000FFE03197F1F700C00000DB98EFE9FFE065
:100220003197F1F700C00000DB9A2BB3F0E18F9F0C
:10023000C0011124922F9F70892B8BBB8FE99FE007
:100240000197F1F700C00000DB98EFE9FFE031977C
:10025000F1F700C0000008958FEF8ABB2FE782E31B
:1002600092E0215080409040E1F700C0000083E31D
:100270000E94D20082E30E94D20088E20E94D20053
:1002800088E00E94D20081E00E94D20086E00E94B5
:10029000D2008FE00C94D20081E00C94D200805800
:1002A00090E4699F800D11240C94D2000F931F934A
:1002B000CF93DF938A010E944F01E801899188233F
:1002C00019F00E94FF00FACFDF91CF911F910F919B
:1002D00008950E94FF0080E090E00895811102C01F
:1002E0008CE003C0813019F48FE00C94D2000895A3
:1002F000BB9A8FE797E00197F1F700C00000BB9829
:10030000E7E1F1E03197F1F700C0000086B3E7E6DE
:10031000F6E03197F1F700C0000088700895BB9AAD
:10032000882351F080E28A95F1F7BB988FEF90E037
:100330000197F1F700C00AC08FEE90E00197F1F746
:1003400000C00000BB9895E39A95F1F7000008956E
:10035000BB9A80E28A95F1F7BB98E0E3EA95F1F762
:1003600086B3EBEDF0E03197F1F700C00000887044
:100370000895CF93DF93D82FC8E08D2F81700E940E
:100380008F01D695C150C9F7DF91CF910895CF93D2
:10039000DF93D8E0C0E0C6950E94A8018111C06833
:1003A000D150C9F78C2FDF91CF91089590BD89B9B5
:1003B0008EE880BD88E18AB9579A08955D9BFECF8B
:1003C0008CB908955F9BFECF8CB108950E94DE0129
:1003D00080E090E008958FEF81BB82BB0E942C01EA
:1003E00080E00E946E0181E090E00E94D60186E1EB
:1003F0008093DC0087E18093DD00789460E670E014
:100400008CEA90E00E94AE0451E7C52E52E0D52E52
:100410006FEDA62E09EB10E0CEE6D0E07AECE72EE9
:1004200070E0F72E99249A940E9478018CEC0E9437
:10043000B90184E40E94B9012FEF4EE954E2215042
:1004400040405040E1F700C000000E9478018CEC71
:100450000E94B9018EEB0E94B9010E94C701B82E1B
:100460000E94C7012B2D30E0A901582BCA019A0127
:1004700044E0369527954A95E1F72093DA008F708E
:1004800099278C9D90018D9D300D9C9D300D1124E0
:100490003093E9002093E80060E080E00E944F0183
:1004A0001F92AF928091E9008F938091E8008F9323
:1004B0008091DA001F928F931F930F93DF93CF9356
:1004C0000E949C0461E080E00E944F018091DD0069
:1004D0001F928F938091DC001F928F93FF92EF9277
:1004E000DF93CF930E949C046091E8007091E90033
:1004F00080E090E00E94BF0320E030E44CE156E44D
:100500000E944D032B013C016091DA0070E080E015
:1005100090E00E94BF039B01AC01C301B2010E94A5
:10052000DC022B013C016091DD0070E080E090E096
:100530000E94C1039B01AC018DB79EB742960FB6D6
:10054000F8949EBF0FBE8DBFC301B2010E9471041B
:1005500018160CF492BA6091E8007091E90080E0FE
:1005600090E00E94BF0320E030E44CE156E40E949A
:100570004D032B013C016091DA0070E080E090E0D7
:100580000E94BF039B01AC01C301B2010E94DC02C7
:100590002B013C016091DC0070E080E090E00E9463
:1005A000C1039B01AC01C301B2010E94480387FF54
:1005B0003BCF12BA39CF5058BB27AA270E94F3026B
:1005C0000C9437040E94290438F00E94300420F073
:1005D00039F49F3F19F426F40C9426040EF4E095A8
:1005E000E7FB0C942004E92F0E94480458F3BA1743
:1005F000620773078407950720F079F4A6F50C9439
:100600006A040EF4E0950B2EBA2FA02D0B01B90150
:1006100090010C01CA01A0011124FF27591B99F078
:10062000593F50F4503E68F11A16F040A22F232F84
:10063000342F4427585FF3CF469537952795A795D4
:10064000F0405395C9F77EF41F16BA0B620B730B7B
:10065000840BBAF09150A1F0FF0FBB1F661F771FEC
:10066000881FC2F70EC0BA0F621F731F841F48F4A1
:10067000879577956795B795F7959E3F08F0B0CF2A
:100680009395880F08F09927EE0F97958795089511
:100690000E94FC0308F481E008950E9461030C9419
:1006A00037040E94300458F00E94290440F029F4D5
:1006B0005F3F29F00C94200451110C946B040C94AE
:1006C00026040E94480468F39923B1F3552391F35B
:1006D000951B550BBB27AA2762177307840738F0B1
:1006E0009F5F5F4F220F331F441FAA1FA9F335D00E
:1006F0000E2E3AF0E0E832D091505040E695001CC2
:10070000CAF72BD0FE2F29D0660F771F881FBB1F7B
:10071000261737074807AB07B0E809F0BB0B802D59
:10072000BF01FF2793585F4F3AF09E3F510578F085
:100730000C9420040C946B045F3FE4F3983ED4F3D4
:10074000869577956795B795F7959F5FC9F7880F59
:10075000911D9695879597F90895E1E0660F771FAB
:10076000881FBB1F621773078407BA0720F0621B3C
:10077000730B840BBA0BEE1F88F7E0950895E8948D
:1007800009C097FB3EF490958095709561957F4FD9
:100790008F4F9F4F9923A9F0F92F96E9BB27939587
:1007A000F695879577956795B795F111F8CFFAF497
:1007B000BB0F11F460FF1BC06F5F7F4F8F4F9F4FC8
:1007C00016C0882311F096E911C0772321F09EE826
:1007D000872F762F05C0662371F096E8862F70E08C
:1007E00060E02AF09A95660F771F881FDAF7880F66
:1007F0009695879597F90895990F0008550FAA0BBC
:10080000E0E8FEEF16161706E807F907C0F0121623
:100810001306E407F50798F0621B730B840B950B26
:1008200039F40A2661F0232B242B252B21F408957B
:100830000A2609F4A140A6958FEF811D811D089518
:1008400097F99F6780E870E060E008959FEF80EC83
:10085000089500240A941616170618060906089526
:1008600000240A9412161306140605060895092E8C
:100870000394000C11F4882352F0BB0F40F4BF2BFB
:1008800011F460FF04C06F5F7F4F8F4F9F4F08953B
:1008900057FD9058440F551F59F05F3F71F0479531
:1008A000880F97FB991F61F09F3F79F08795089516
:1008B000121613061406551FF2CF4695F1DF08C035
:1008C000161617061806991FF1CF86957105610552
:1008D00008940895E894BB2766277727CB0197F9FA
:1008E00008950E94FC0308F48FEF0895FC01882707
:1008F0009927E89421912032E9F3293010F02E3025
:10090000C8F32B3241F02D3239F4689404C00E94B0
:100910009404820F911D219120532A30C0F31EF4BC
:10092000909581959F4F08957AE0979F902D879F8E
:10093000802D910D11240895A0E0B0E0E2EAF4E0EA
:100940000C947907AE01475F5F4F6F8178858D8189
:100950009E810E94D804E2E00C949507EF92FF92EA
:100960000F931F93CF93DF93DB0113962C9121FFFD
:1009700018C08B017C01D0E0C0E0F70181917F01BC
:10098000882361F0D8011896ED91FC911997B80170
:100990000995892B91F3DFEFCFEFEFCF8D2F9C2FB0
:1009A00002C08FEF9FEFCDB7DEB7E6E00C94910762
:1009B000ABE0B0E0EEEDF4E00C9469076C017B0174
:1009C0008A01FC0117821682838181FFCCC1CE018E
:1009D00001963C01F6019381F70193FD859193FF08
:1009E00081917F01882309F4BAC1853239F493FDDE
:1009F000859193FF81917F01853229F4B60190E0C2
:100A00000E94CF06E7CF912C212C312CFFE1F3156A
:100A1000D8F08B3279F038F4803279F08332A1F457
:100A2000232D20611DC08D3261F0803369F4232DA8
:100A3000216016C0832D8260382EE32DE4603E2EA7
:100A40002AC0F32DF8601DC037FC2DC020ED280F03
:100A50002A3040F08E32B9F436FC81C1232D206457
:100A6000322E19C036FE06C08AE0989E200D112451
:100A7000922E11C0EAE02E9E200D1124222EF32D7D
:100A8000F0623F2E08C08C3621F4832D8068382E0A
:100A900002C0883641F4F70193FD859193FF81915F
:100AA0007F018111B3CF982F9F7D9554933028F407
:100AB0000C5F1F4F9FE399830DC0833631F083375E
:100AC00071F0833509F059C021C0F8018081898314
:100AD0000E5F1F4F88248394912C530113C028016B
:100AE000F2E04F0E511CF801A080B18036FE03C029
:100AF000692D70E002C06FEF7FEFC5010E94C40650
:100B00004C018201F32DFF773F2E16C0280122E011
:100B1000420E511CF801A080B18036FE03C0692D41
:100B200070E002C06FEF7FEFC5010E94B9064C0173
:100B3000F32DF0683F2E820133FC1BC0822D90E024
:100B400088169906B0F4B60180E290E00E94CF06C4
:100B50002A94F4CFF50137FC859137FE81915F012E
:100B6000B60190E00E94CF0621102A9421E0821A5B
:100B700091088114910471F7E8C0843611F0893628
:100B800041F5F80137FE07C0608171818281938150
:100B90000C5F1F4F08C060817181072E000C880B0D
:100BA000990B0E5F1F4FF32DFF763F2E97FF09C065
:100BB00090958095709561957F4F8F4F9F4FF0680E
:100BC0003F2E2AE030E0A3010E940B07882E8618F2
:100BD00045C0853731F4232D2F7EB22E2AE030E038
:100BE00025C0932D997FB92E8F36C1F018F4883522
:100BF00079F0B5C0803719F0883721F0B0C0E92FFF
:100C0000E061BE2EB4FE0DC0FB2DF460BF2E09C006
:100C100034FE0AC0292F2660B22E06C028E030E03C
:100C200005C020E130E002C020E132E0F801B7FE6B
:100C300007C060817181828193810C5F1F4F06C064
:100C40006081718180E090E00E5F1F4FA3010E94E0
:100C50000B07882E8618FB2DFF773F2E36FE0DC022
:100C6000232D2E7FA22E891458F434FE0BC032FCA3
:100C700009C0832D8E7EA82E05C0B82CA32C03C0DE
:100C8000B82C01C0B92CA4FE0FC0FE01E80DF11D67
:100C90008081803321F49A2D997EA92E09C0A2FE6D
:100CA00006C0B394B39404C08A2D867809F0B39437
:100CB000A3FC11C0A0FE06C0B21488F4280C922C2C
:100CC0009B180EC0B21460F4B60180E290E00E945E
:100CD000CF06B394F7CFB21418F42B1802C0982C97
:100CE000212CA4FE10C0B60180E390E00E94CF0644
:100CF000A2FE17C0A1FC03C088E790E002C088E50F
:100D000090E0B6010CC08A2D867859F0A1FE02C091
:100D10008BE201C080E2A7FC8DE2B60190E00E9468
:100D2000CF06891438F4B60180E390E00E94CF0624
:100D30009A94F7CF8A94F301E80DF11D8081B601F2
:100D400090E00E94CF068110F5CF222009F442CE18
:100D5000B60180E290E00E94CF062A94F6CFF60119
:100D60008681978102C08FEF9FEF2B96E2E10C9472
:100D70008507FC010590615070400110D8F78095FF
:100D800090958E0F9F1F0895FC0161507040019057
:100D90000110D8F7809590958E0F9F1F08950F939F
:100DA0001F93CF93DF93FB01238121FD03C08FEFBE
:100DB0009FEF2CC022FF16C04681578124813581C8
:100DC0004217530744F4A081B1819D012F5F3F4F2B
:100DD000318320838C93268137812F5F3F4F378368
:100DE000268314C08B01EC01FB010084F185E02D0A
:100DF0000995892BE1F6D80116968D919C9117974C
:100E0000019617969C938E931697CE01DF91CF9102
:100E10001F910F910895FA01AA27283051F120312E
:100E200081F1E8946F936E7F6E5F7F4F8F4F9F4F7E
:100E3000AF4FB1E03ED0B4E03CD0670F781F891FC0
:100E40009A1FA11D680F791F8A1F911DA11D6A0F8E
:100E5000711D811D911DA11D20D009F468943F9141
:100E60002AE0269F11243019305D3193DEF6CF0140
:100E70000895462F4770405D4193B3E00FD0C9F706
:100E8000F6CF462F4F70405D4A3318F0495D31FD73
:100E90004052419302D0A9F7EACFB4E0A6959795C6
:100EA000879577956795BA95C9F70097610571059C
:100EB00008959B01AC010A2E0694579547953795E6
:100EC0002795BA95C9F7620F731F841F951FA01D40
:100ED00008952F923F924F925F926F927F928F92DE
:100EE0009F92AF92BF92CF92DF92EF92FF920F93B9
:100EF0001F93CF93DF93CDB7DEB7CA1BDB0B0FB6C3
:100F0000F894DEBF0FBECDBF09942A88398848887F
:100F10005F846E847D848C849B84AA84B984C88415
:100F2000DF80EE80FD800C811B81AA81B981CE0F0C
:100F3000D11D0FB6F894DEBF0FBECDBFED010895F1
:040F4000F894FFCF53
:100F44000000000200000000E601000000000000B4
:100F5400000200000000690100000000546D696E89
:100F6400203D2025640A00506F64616A20546D613D
:100F7400783A2000546D6178203D2025640A0050A1
:100F84006F64616A20546D696E3A2000577069730A
:100F94007A20546D696E200A0054203D2025642E69
:100FA400253034642025632043006D696E203D257F
:0A0FB400642C6D61783D2564000097
:00000001FF
