:100000000C9430000C9447000C9445000C9445006F
:100010000C9445000C9445000C9445000C9445004C
:100020000C9445000C9445000C9445000C9445003C
:100030000C9445000C9445000C9445000C9445002C
:100040000C9445000C9445000C9445000C9445001C
:100050000C944500416C61206D61206B6F746100F0
:1000600011241FBECFE5D8E0DEBFCDBF10E0A0E673
:10007000B0E0EEE0FBE002C005900D92AC3BB107B2
:10008000D9F70E947C020C9485050C9400001F9205
:100090000F920FB60F9211240F931F932F933F933C
:1000A0004F935F936F937F938F939F93AF93BF9380
:1000B000CF93DF93EF93FF938EE690E00E940D02C3
:1000C00060E080E00E943501CEE6D0E0EC81F0E017
:1000D000EE0FFF1FE05AFF4F81818F9380818F9336
:1000E0008A811F928F9389811F928F9388811F929B
:1000F0008F9383E890E09F938F9305E710E01F9321
:100100000F930E94AB0261E080E00E9435018E8176
:1001100090E08053984F9F938F938D811F928F9380
:100120008B811F928F9387E990E09F938F931F930A
:100130000F930E94AB028DB79EB746960FB6F89408
:100140009EBF0FBE8DBFFF91EF91DF91CF91BF9109
:10015000AF919F918F917F916F915F914F913F915F
:100160002F911F910F910F900FBE0F901F90189518
:10017000DA98DB9A9BB3282F207F9F70922B9BBB32
:10018000EFE9FFE03197F1F700C00000DB98EFE9FD
:10019000FFE03197F1F700C00000DB9A2BB3F0E1EC
:1001A0008F9FC0011124922F9F70892B8BBB8FE9E9
:1001B0009FE00197F1F700C00000DB98EFE9FFE056
:1001C0003197F1F700C000000895DA9ADB9A9BB3EB
:1001D000282F207F9F70922B9BBBEFE9FFE0319788
:1001E000F1F700C00000DB98EFE9FFE03197F1F78D
:1001F00000C00000DB9A2BB3F0E18F9FC0011124F7
:10020000922F9F70892B8BBB8FE99FE00197F1F7AD
:1002100000C00000DB98EFE9FFE03197F1F700C084
:10022000000008958FEF8ABB2FE782E392E0215010
:1002300080409040E1F700C0000083E30E94B800D6
:1002400082E30E94B80088E20E94B80088E00E9421
:10025000B80081E00E94B80086E00E94B8008FE0FC
:100260000C94B80081E00C94B800805890E4699F29
:10027000800D11240C94B8000F931F93CF93DF933C
:100280008A010E943501E8018991882319F00E94B2
:10029000E500FACFDF91CF911F910F9108950E9451
:1002A000E50080E090E00895811102C08CE003C079
:1002B000813019F48FE00C94B800089588E480B977
:1002C000089584EA86BF06B607FEFDCF089584E947
:1002D00086BF06B604FCFDCF089583B984E886BFC7
:1002E00006B607FEFDCF089520E4829FC0011124C9
:1002F000846886BF06B607FEFDCF83B108950E94CD
:10030000610182EA0E946D018DE00E946D0183E827
:100310000E946D010C946701AF92BF92CF92DF9261
:10032000EF92FF920F931F93CF93DF93CDB7DEB77A
:1003300027970FB6F894DEBF0FBECDBFD22EC32EC7
:10034000B42EE52EF62E072FA82E0E94610182EA18
:100350000E946D0182E00E946D011AE08B2D612FD9
:100360000E949F0220E1829F900D1124892F0E94FC
:100370006D018C2D612F0E949F0220E1829F900DC4
:100380001124892F0E946D018D2D612F0E949F02E3
:1003900020E1829F900D1124892F0E946D018E2DE6
:1003A000612F0E949F0220E1829F900D1124892FCE
:1003B0000E946D018F2D612F0E949F0220E1829F7C
:1003C000900D1124892F0E946D01802F612F0E94B2
:1003D0009F0220E1829F900D1124892F0E946D01C0
:1003E0008A2D612F0E949F0220E1829F900D11248F
:1003F000892F0E946D0127960FB6F894DEBF0FBEBD
:10040000CDBFDF91CF911F910F91FF90EF90DF90C3
:10041000CF90BF90AF900C946701CF93DF93EC0126
:100420000E94610182EA0E946D0182E00E946D01DA
:100430000E94610183EA0E946D0181E00E947401C3
:10044000982F9695969596959E70292F220F220F9C
:10045000920F8F70890F8A8381E00E947401982F18
:100460009695969596959E70292F220F220F920FA2
:100470008F70890F898381E00E947401982F96956F
:10048000969596959670292F220F220F920F8F70B6
:10049000890F888381E00E947401982F9695969524
:1004A00096959670292F220F220F920F8F70890F29
:1004B0008B8381E00E94740187708C8381E00E94AD
:1004C000740184FB992790F9990F292F220F220F8D
:1004D000920F8F70890F8D8380E00E947401982F96
:1004E00092959F708F702AE0929F800D11248E83C9
:1004F000DF91CF910C94670185B7826085BF8BB780
:1005000080648BBF78940E94120180E00E945401A5
:100510000E9432010E945E010E947F0120916E00C4
:1005200030916F00409170005091710060917200A5
:1005300070917300809174000E948C01FFCF991B11
:1005400079E004C0991F961708F0961B881F7A95CA
:10055000C9F780950895A0E0B0E0E1EBF2E00C94DB
:100560005E05AE01475F5F4F6F8178858D819E810B
:100570000E94BD02E2E00C947A05ABE0B0E0E3EC4F
:10058000F2E00C944E056C017B018A01FC0117829C
:100590001682838181FFCCC1CE0101963C01F60118
:1005A0009381F70193FD859193FF81917F018823CA
:1005B00009F4BAC1853239F493FD859193FF819195
:1005C0007F01853229F4B60190E00E94B404E7CFA0
:1005D000912C212C312CFFE1F315D8F08B3279F0DE
:1005E00038F4803279F08332A1F4232D20611DC0CC
:1005F0008D3261F0803369F4232D216016C0832D84
:100600008260382EE32DE4603E2E2AC0F32DF86080
:100610001DC037FC2DC020ED280F2A3040F08E324F
:10062000B9F436FC81C1232D2064322E19C036FE68
:1006300006C08AE0989E200D1124922E11C0EAE097
:100640002E9E200D1124222EF32DF0623F2E08C085
:100650008C3621F4832D8068382E02C0883641F410
:10066000F70193FD859193FF81917F018111B3CFB4
:10067000982F9F7D9554933028F40C5F1F4F9FE374
:1006800099830DC0833631F0833771F0833509F0DB
:1006900059C021C0F801808189830E5F1F4F8824D3
:1006A0008394912C530113C02801F2E04F0E511C8A
:1006B000F801A080B18036FE03C0692D70E002C051
:1006C0006FEF7FEFC5010E94A9044C018201F32D59
:1006D000FF773F2E16C0280122E0420E511CF80180
:1006E000A080B18036FE03C0692D70E002C06FEFBC
:1006F0007FEFC5010E949E044C01F32DF0683F2E50
:10070000820133FC1BC0822D90E088169906B0F45C
:10071000B60180E290E00E94B4042A94F4CFF5017F
:1007200037FC859137FE81915F01B60190E00E9410
:10073000B40421102A9421E0821A910881149104B2
:1007400071F7E8C0843611F0893641F5F80137FEBB
:1007500007C060817181828193810C5F1F4F08C047
:1007600060817181072E000C880B990B0E5F1F4F63
:10077000F32DFF763F2E97FF09C0909580957095D9
:1007800061957F4F8F4F9F4FF0683F2E2AE030E0FA
:10079000A3010E94F004882E861845C0853731F4E5
:1007A000232D2F7EB22E2AE030E025C0932D997F95
:1007B000B92E8F36C1F018F4883579F0B5C080377E
:1007C00019F0883721F0B0C0E92FE061BE2EB4FEE9
:1007D0000DC0FB2DF460BF2E09C034FE0AC0292FC6
:1007E0002660B22E06C028E030E005C020E130E0EF
:1007F00002C020E132E0F801B7FE07C060817181DC
:10080000828193810C5F1F4F06C06081718180E0FF
:1008100090E00E5F1F4FA3010E94F004882E8618FF
:10082000FB2DFF773F2E36FE0DC0232D2E7FA22EEF
:10083000891458F434FE0BC032FC09C0832D8E7E1F
:10084000A82E05C0B82CA32C03C0B82C01C0B92C0D
:10085000A4FE0FC0FE01E80DF11D8081803321F45C
:100860009A2D997EA92E09C0A2FE06C0B394B39416
:1008700004C08A2D867809F0B394A3FC11C0A0FEB1
:1008800006C0B21488F4280C922C9B180EC0B21427
:1008900060F4B60180E290E00E94B404B394F7CF14
:1008A000B21418F42B1802C0982C212CA4FE10C0EE
:1008B000B60180E390E00E94B404A2FE17C0A1FC40
:1008C00003C088E790E002C088E590E0B6010CC064
:1008D0008A2D867859F0A1FE02C08BE201C080E229
:1008E000A7FC8DE2B60190E00E94B404891438F4AC
:1008F000B60180E390E00E94B4049A94F7CF8A9402
:10090000F301E80DF11D8081B60190E00E94B4046E
:100910008110F5CF222009F442CEB60180E290E0AA
:100920000E94B4042A94F6CFF6018681978102C012
:100930008FEF9FEF2B96E2E10C946A05FC01059086
:10094000615070400110D8F7809590958E0F9F1FD1
:100950000895FC016150704001900110D8F7809516
:1009600090958E0F9F1F08950F931F93CF93DF9342
:10097000FB01238121FD03C08FEF9FEF2CC022FFDD
:1009800016C046815781248135814217530744F4AC
:10099000A081B1819D012F5F3F4F318320838C93D4
:1009A000268137812F5F3F4F3783268314C08B0109
:1009B000EC01FB010084F185E02D0995892BE1F61E
:1009C000D80116968D919C911797019617969C9336
:1009D0008E931697CE01DF91CF911F910F910895BD
:1009E000FA01AA27283051F1203181F1E8946F9360
:1009F0006E7F6E5F7F4F8F4F9F4FAF4FB1E03ED006
:100A0000B4E03CD0670F781F891F9A1FA11D680FA3
:100A1000791F8A1F911DA11D6A0F711D811D911DD6
:100A2000A11D20D009F468943F912AE0269F11244B
:100A30003019305D3193DEF6CF010895462F4770AF
:100A4000405D4193B3E00FD0C9F7F6CF462F4F700A
:100A5000405D4A3318F0495D31FD4052419302D068
:100A6000A9F7EACFB4E0A69597958795779567950E
:100A7000BA95C9F700976105710508959B01AC010E
:100A80000A2E06945795479537952795BA95C9F735
:100A9000620F731F841F951FA01D08952F923F9210
:100AA0004F925F926F927F928F929F92AF92BF927E
:100AB000CF92DF92EF92FF920F931F93CF93DF932A
:100AC000CDB7DEB7CA1BDB0B0FB6F894DEBF0FBE87
:100AD000CDBF09942A88398848885F846E847D84D4
:100AE0008C849B84AA84B984C884DF80EE80FD80D6
:100AF0000C811B81AA81B981CE0FD11D0FB6F8944C
:0E0B0000DEBF0FBECDBFED010895F894FFCF0C
:100B0E00A600A900AC00AF00B200B600B900173BBA
:100B1E00381F060C1600000002000000004F0100F6
:100B2E00000000253032643A253032643A253032E6
:100B3E0064202020257300253032642F2530326446
:100B4E002F25303264006E6400706E00777400736F
:0C0B5E007200637A7700707400736F00FF
:00000001FF
