:100000000C9430000C944D000C944D000C944D0059
:100010000C944D000C944D000C944D000C944D002C
:100020000C944D000C944D000C944D000C944D001C
:100030000C944D000C944F000C944D000C944D000A
:100040000C944D000C944D000C944D000C944D00FC
:100050000C944D00416C61206D61206B6F746100E8
:1000600011241FBECFE5D8E0DEBFCDBF10E0A0E673
:10007000B0E0E0E3FAE002C005900D92A03AB107CB
:10008000D9F720E0A0EAB0E001C01D92A03BB20782
:10009000E1F70E94C2010C9416050C9400001F9217
:1000A0000F920FB60F9211242F933F934F935F93AC
:1000B0006F937F938F939F93AF93BF93EF93FF9330
:1000C0008091A2009CB1E82FF0E0EC55FF4F9083A7
:1000D0009A3011F09D3049F542E050E06CE770E055
:1000E00084EA90E00E942E02892BE1F48091AF0017
:1000F0008F938091AE008F938091A1001F928F9378
:100100008FE790E09F938F9380E690E09F938F938B
:100110000E943C028DB79EB708960FB6F8949EBF1A
:100120000FBE8DBF1092A20003C08F5F8093A2000C
:10013000FF91EF91BF91AF919F918F917F916F91BF
:100140005F914F913F912F910F900FBE0F901F9095
:100150001895DA98DB9A9BB3282F207F9F70922BFB
:100160009BBBEFE9FFE03197F1F700C00000DB989F
:10017000EFE9FFE03197F1F700C00000DB9A2BB305
:10018000F0E18F9FC0011124922F9F70892B8BBBB0
:100190008FE99FE00197F1F700C00000DB98EFE9DD
:1001A000FFE03197F1F700C000000895DA9ADB9A7A
:1001B0009BB3282F207F9F70922B9BBBEFE9FFE022
:1001C0003197F1F700C00000DB98EFE9FFE03197CD
:1001D000F1F700C00000DB9A2BB3F0E18F9FC00164
:1001E0001124922F9F70892B8BBB8FE99FE0019781
:1001F000F1F700C00000DB98EFE9FFE03197F1F77D
:1002000000C0000008958FEF8ABB2FE782E392E0E1
:10021000215080409040E1F700C0000083E30E943D
:10022000A90082E30E94A90088E20E94A90088E058
:100230000E94A90081E00E94A90086E00E94A90016
:100240008FE00C94A90081E00C94A900805890E400
:10025000699F800D11240C94A9000F931F93CF93D5
:10026000DF938A010E942601E8018991882319F011
:100270000E94D600FACFDF91CF911F910F91089580
:100280000E94D60080E090E00895811102C08CE0C9
:1002900003C0813019F48FE00C94A9000895BB9A33
:1002A0008FE797E00197F1F700C00000BB98E7E106
:1002B000F1E03197F1F700C0000086B3E7E6F6E021
:1002C0003197F1F700C0000088700895BB9A882329
:1002D00051F080E28A95F1F7BB988FEF90E001979B
:1002E000F1F700C00AC08FEE90E00197F1F700C06F
:1002F0000000BB9895E39A95F1F700000895BB9A2A
:1003000080E28A95F1F7BB98E0E3EA95F1F786B3CE
:10031000EBEDF0E03197F1F700C000008870089530
:10032000CF93DF93D82FC8E08D2F81700E94660194
:10033000D695C150C9F7DF91CF910895CF93DF9340
:10034000D8E0C0E0C6950E947F018111C068D150FD
:10035000C9F78C2FDF91CF91089590BD89B98EE8B0
:1003600080BD88E18AB9579A08955D9BFECF8CB90C
:1003700008955F9BFECF8CB108950E94B50180E087
:1003800090E008950E94030180E00E94450181E011
:1003900090E00E94AD01789451E7E52E52E0F52EF1
:1003A0006FEDC62E0FE810E0CEE6D0E00E944F01C0
:1003B0008CEC0E94900184E40E9490012FEF4EE9A2
:1003C00054E2215040405040E1F700C000000E943C
:1003D0004F018CEC0E9490018EEB0E9490010E94D4
:1003E0009E01D82E0E949E012D2D30E0A901582B90
:1003F000CA019A0144E0369527954A95E1F7209382
:10040000A1008F7099278E9D90018F9D300D9E9D2C
:10041000300D11243093AF002093AE0060E080E0F7
:100420000E9426011F92CF928091AF008F938091FE
:10043000AE008F938091A1001F928F931F930F9313
:10044000DF93CF930E943C024DB75EB7465F5F4F8C
:100450000FB6F8945EBF0FBE4DBFA8CFFB01DC0105
:100460004150504030F08D910190801919F40020D6
:10047000B9F7881B990B0895A0E0B0E0E2E4F2E040
:100480000C94EF04AE01475F5F4F6F8178858D81DB
:100490009E810E944E02E2E00C940B05ABE0B0E0BE
:1004A000E4E5F2E00C94DF046C017B018A01FC01BD
:1004B00017821682838181FFCCC1CE0101963C0157
:1004C000F6019381F70193FD859193FF81917F015F
:1004D000882309F4BAC1853239F493FD859193FFDD
:1004E00081917F01853229F4B60190E00E94450494
:1004F000E7CF912C212C312CFFE1F315D8F08B3272
:1005000079F038F4803279F08332A1F4232D206120
:100510001DC08D3261F0803369F4232D216016C037
:10052000832D8260382EE32DE4603E2E2AC0F32D09
:10053000F8601DC037FC2DC020ED280F2A3040F098
:100540008E32B9F436FC81C1232D2064322E19C0BD
:1005500036FE06C08AE0989E200D1124922E11C00E
:10056000EAE02E9E200D1124222EF32DF0623F2E64
:1005700008C08C3621F4832D8068382E02C088365E
:1005800041F4F70193FD859193FF81917F018111E2
:10059000B3CF982F9F7D9554933028F40C5F1F4F55
:1005A0009FE399830DC0833631F0833771F0833533
:1005B00009F059C021C0F801808189830E5F1F4F67
:1005C00088248394912C530113C02801F2E04F0E2C
:1005D000511CF801A080B18036FE03C0692D70E087
:1005E00002C06FEF7FEFC5010E943A044C01820107
:1005F000F32DFF773F2E16C0280122E0420E511C3A
:10060000F801A080B18036FE03C0692D70E002C001
:100610006FEF7FEFC5010E942F044C01F32DF068AE
:100620003F2E820133FC1BC0822D90E08816990674
:10063000B0F4B60180E290E00E9445042A94F4CF21
:10064000F50137FC859137FE81915F01B60190E09D
:100650000E94450421102A9421E0821A91088114F5
:10066000910471F7E8C0843611F0893641F5F8013C
:1006700037FE07C060817181828193810C5F1F4FBB
:1006800008C060817181072E000C880B990B0E5FEA
:100690001F4FF32DFF763F2E97FF09C09095809551
:1006A000709561957F4F8F4F9F4FF0683F2E2AE0E6
:1006B00030E0A3010E948104882E861845C085374A
:1006C00031F4232D2F7EB22E2AE030E025C0932D69
:1006D000997FB92E8F36C1F018F4883579F0B5C0FE
:1006E000803719F0883721F0B0C0E92FE061BE2EC5
:1006F000B4FE0DC0FB2DF460BF2E09C034FE0AC04D
:10070000292F2660B22E06C028E030E005C020E187
:1007100030E002C020E132E0F801B7FE07C060819E
:100720007181828193810C5F1F4F06C0608171814E
:1007300080E090E00E5F1F4FA3010E948104882E8D
:100740008618FB2DFF773F2E36FE0DC0232D2E7F02
:10075000A22E891458F434FE0BC032FC09C0832D3C
:100760008E7EA82E05C0B82CA32C03C0B82C01C0C7
:10077000B92CA4FE0FC0FE01E80DF11D808180336D
:1007800021F49A2D997EA92E09C0A2FE06C0B39429
:10079000B39404C08A2D867809F0B394A3FC11C0E9
:1007A000A0FE06C0B21488F4280C922C9B180EC030
:1007B000B21460F4B60180E290E00E944504B39464
:1007C000F7CFB21418F42B1802C0982C212CA4FED9
:1007D00010C0B60180E390E00E944504A2FE17C05D
:1007E000A1FC03C088E790E002C088E590E0B60174
:1007F0000CC08A2D867859F0A1FE02C08BE201C0A0
:1008000080E2A7FC8DE2B60190E00E9445048914C5
:1008100038F4B60180E390E00E9445049A94F7CF43
:100820008A94F301E80DF11D8081B60190E00E94E9
:1008300045048110F5CF222009F442CEB60180E2B2
:1008400090E00E9445042A94F6CFF60186819781B4
:1008500002C08FEF9FEF2B96E2E10C94FB04FC01AA
:100860000590615070400110D8F7809590958E0FDB
:100870009F1F0895FC016150704001900110D8F74E
:10088000809590958E0F9F1F08950F931F93CF9380
:10089000DF93FB01238121FD03C08FEF9FEF2CC06D
:1008A00022FF16C0468157812481358142175307A4
:1008B00044F4A081B1819D012F5F3F4F318320839C
:1008C0008C93268137812F5F3F4F3783268314C057
:1008D0008B01EC01FB010084F185E02D0995892B4A
:1008E000E1F6D80116968D919C911797019617966F
:1008F0009C938E931697CE01DF91CF911F910F910C
:100900000895FA01AA27283051F1203181F1E894A5
:100910006F936E7F6E5F7F4F8F4F9F4FAF4FB1E0F2
:100920003ED0B4E03CD0670F781F891F9A1FA11DED
:10093000680F791F8A1F911DA11D6A0F711D811DEE
:10094000911DA11D20D009F468943F912AE0269FB3
:1009500011243019305D3193DEF6CF010895462F12
:100960004770405D4193B3E00FD0C9F7F6CF462FF3
:100970004F70405D4A3318F0495D31FD405241935C
:1009800002D0A9F7EACFB4E0A69597958795779519
:100990006795BA95C9F700976105710508959B01A0
:1009A000AC010A2E06945795479537952795BA9529
:1009B000C9F7620F731F841F951FA01D08952F9202
:1009C0003F924F925F926F927F928F929F92AF92DF
:1009D000BF92CF92DF92EF92FF920F931F93CF932C
:1009E000DF93CDB7DEB7CA1BDB0B0FB6F894DEBFC3
:1009F0000FBECDBF09942A88398848885F846E84E9
:100A00007D848C849B84AA84B984C884DF80EE8032
:100A1000FD800C811B81AA81B981CE0FD11D0FB63B
:100A2000F894DEBF0FBECDBFED010895F894FFCF5F
:100A30000000000200000000BD01000000000000F6
:100A40000002000000004001000000006F6E005432
:100A5000203D2025642E253034642020430A005494
:100A6000203D2025642E253034642025632043005A
:00000001FF
