:100000000C942A000C9434000C9434000C943400AA
:100010000C9434000C9434000C9434000C94340090
:100020000C9434000C9434000C9434000C94340080
:100030000C9434000C9434000C9434000C94340070
:100040000C9434000C9434000C9434000C94340060
:100050000C94340011241FBECFE5D8E0DEBFCDBF25
:100060000E9448000C946E000C94000020E030E0E8
:100070002817390761F04FEF53ED60E341505040CE
:100080006040E1F700C000002F5F3F4FF1CF0895BF
:100090008FEF84BB11BA82BB81E085BB20E030E0EA
:1000A00080990AC020954FEF83EC99E04150804041
:1000B0009040E1F700C000002115310589F795B3A4
:1000C00085B3990F869586958695892B85BB8FE19B
:1000D0009EE40197F1F700C00000E2CFF894FFCF53
:00000001FF
