:100000000C942A000C9447000C9447000C94470071
:100010000C9447000C9447000C9447000C94490042
:100020000C9447000C9447000C9464000C94470017
:100030000C9447000C9447000C9447000C94470024
:100040000C9447000C9447000C9447000C94470014
:100050000C94470011241FBECFE5D8E0DEBFCDBF12
:1000600010E0A0E6B0E0E4E3F2E002C005900D92FB
:10007000AA36B107D9F720E0AAE6B0E001C01D9288
:10008000AD36B207E1F70E94E5000C9418010C941C
:1000900000001F920F920FB60F9211248F939F931F
:1000A00080916B0090916C00019790936C0080930D
:1000B0006B00892B11F418BA1EBC9F918F910F9081
:1000C0000FBE0F901F9018951F920F920FB60F92B0
:1000D00011245F936F937F938F939F93AF93BF93FD
:1000E000EF93FF9380916A008F5F843019F08093C3
:1000F0006A0002C010926A0081E090E000906A00FD
:1001000002C0880F991F0A94E2F7809585BB809101
:100110006A0081110DC080916B0090916C006AE0C3
:1001200070E00E940401FC01E05AFF4F808182BB15
:1001300080916A00813089F480916B0090916C000D
:1001400064E670E00E9404016AE070E00E9404012D
:10015000FB01E05AFF4F808182BB80916A008230B0
:1001600089F480916B0090916C0068EE73E00E94BE
:10017000040164E670E00E940401FB01E05AFF4FB5
:10018000808182BB80916A00833089F480916B000A
:1001900090916C0060E177E20E94040168EE73E0E8
:1001A0000E940401FB01E05AFF4F808182BBFF9156
:1001B000EF91BF91AF919F918F917F916F915F91DF
:1001C0000F900FBE0F901F90189588EE93E09093BC
:1001D0006C0080936B008FEF84BB81BB87BB88BBB7
:1001E0008EB589608EBD80E89EE39BBD8ABD89B7D0
:1001F000806189BF87E28CBF83B78D6083BF89B779
:10020000826089BF7894FFCFAA1BBB1B51E107C056
:10021000AA1FBB1FA617B70710F0A61BB70B881F96
:10022000991F5A95A9F780959095BC01CD01089525
:04023000F894FFCF70
:0A023400C0F9A4B0999282F88090FE
:00000001FF
