:100000000C942A000C9447000C9447000C94470071
:100010000C9447000C9447000C9447000C94470044
:100020000C9447000C9447000C9447000C94470034
:100030000C9447000C9449000C9447000C94470022
:100040000C9447000C9447000C9447000C94470014
:100050000C94470011241FBECFE5D8E0DEBFCDBF12
:1000600010E0A0E6B0E0E6E2F9E002C005900D92F3
:10007000AA3EB107D9F720E0AAEEB0E001C01D9278
:10008000A83FB207E1F70E944C010C9491040C9434
:1000900000001F920F920FB60F9211242F933F93DF
:1000A0004F935F936F937F938F939F93AF93BF9380
:1000B000EF93FF938091EB009CB1E82FF0E0E351C8
:1000C000FF4F90839A3019F09D3009F0BCC08091A9
:1000D000F700811107C08DEE90E00E9467018093C8
:1000E000EA00A4C0813039F48DEE90E00E946701EF
:1000F0008093EC009BC0823009F098C08091ED00A5
:100100008B3201F52091EA003091EC00832F90E0D2
:10011000820F911D9F938F931F923F931F922F9356
:100120008EE690E09F938F9380E690E09F938F936D
:100130000E948D018DB79EB70A960FB6F8949EBFA8
:100140000FBE8DBF8091ED008D3201F52091EA0048
:10015000822F90E03091EC00831B91099F938F9345
:100160001F923F931F922F938DE790E09F938F9361
:1001700080E690E09F938F930E948D018DB79EB78C
:100180000A960FB6F8949EBF0FBE8DBF8091ED000A
:100190008A32F9F48091EA009091EC00899F9001F5
:1001A00011243F932F931F929F931F928F938CE85C
:1001B00090E09F938F9380E690E09F938F930E94AF
:1001C0008D018DB79EB70A960FB6F8949EBF0FBEED
:1001D0008DBF8091ED008F3249F52091EC00211107
:1001E00007C060E670E08BE990E00E949F011EC0AE
:1001F0003091EA00832F622F0E945B011F928F9340
:100200001F922F931F923F938BEB90E09F938F93BE
:1002100080E690E09F938F930E948D018DB79EB7EB
:100220000A960FB6F8949EBF0FBE8DBF1092EB00DA
:100230008091F7008F5F833019F08093F70006C03C
:100240001092F70003C08F5F8093EB00FF91EF9156
:10025000BF91AF919F918F917F916F915F914F91DE
:100260003F912F910F900FBE0F901F90189590BD4A
:1002700089B98EE880BD88E18AB9579A08955D9B57
:10028000FECF8CB908955F9BFECF8CB108950E947C
:100290003F0180E090E0089581E090E00E94370106
:1002A0008FEF84BB85BB789460E670E08AEC90E0C9
:1002B0000E949F01FFCF991B79E004C0991F9617F8
:1002C00008F0961B881F7A95C9F780950895FC0160
:1002D00088279927E89421912032E9F3293010F0FA
:1002E0002E30C8F32B3241F02D3239F4689404C01B
:1002F0000E948501820F911D219120532A30C0F365
:100300001EF4909581959F4F08957AE0979F902DC8
:10031000879F802D910D11240895A0E0B0E0E3E9BE
:10032000F1E00C946A04AE01475F5F4F6F817885FE
:100330008D819E810E94C901E2E00C948604EF92B7
:10034000FF920F931F93CF93DF93DB0113962C91B2
:1003500021FF18C08B017C01D0E0C0E0F701819142
:100360007F01882361F0D8011896ED91FC911997CF
:10037000B8010995892B91F3DFEFCFEFEFCF8D2FE8
:100380009C2F02C08FEF9FEFCDB7DEB7E6E00C9455
:100390008204ABE0B0E0EFECF1E00C945A046C01A5
:1003A0007B018A01FC0117821682838181FFCCC107
:1003B000CE0101963C01F6019381F70193FD8591F1
:1003C00093FF81917F01882309F4BAC1853239F402
:1003D00093FD859193FF81917F01853229F4B601C8
:1003E00090E00E94C003E7CF912C212C312CFFE13B
:1003F000F315D8F08B3279F038F4803279F083320B
:10040000A1F4232D20611DC08D3261F0803369F489
:10041000232D216016C0832D8260382EE32DE460E9
:100420003E2E2AC0F32DF8601DC037FC2DC020EDF4
:10043000280F2A3040F08E32B9F436FC81C1232DCA
:100440002064322E19C036FE06C08AE0989E200D28
:100450001124922E11C0EAE02E9E200D1124222E8E
:10046000F32DF0623F2E08C08C3621F4832D806876
:10047000382E02C0883641F4F70193FD859193FF31
:1004800081917F018111B3CF982F9F7D9554933037
:1004900028F40C5F1F4F9FE399830DC0833631F022
:1004A000833771F0833509F059C021C0F80180818C
:1004B00089830E5F1F4F88248394912C530113C0AE
:1004C0002801F2E04F0E511CF801A080B18036FEE9
:1004D00003C0692D70E002C06FEF7FEFC5010E947D
:1004E000B5034C018201F32DFF773F2E16C0280182
:1004F00022E0420E511CF801A080B18036FE03C0FC
:10050000692D70E002C06FEF7FEFC5010E94AA0362
:100510004C01F32DF0683F2E820133FC1BC0822D6D
:1005200090E088169906B0F4B60180E290E00E944F
:10053000C0032A94F4CFF50137FC859137FE8191F1
:100540005F01B60190E00E94C00321102A9421E0CF
:10055000821A91088114910471F7E8C0843611F071
:10056000893641F5F80137FE07C0608171818281CB
:1005700093810C5F1F4F08C060817181072E000CB2
:10058000880B990B0E5F1F4FF32DFF763F2E97FFC1
:1005900009C090958095709561957F4F8F4F9F4FC3
:1005A000F0683F2E2AE030E0A3010E94FC03882E71
:1005B000861845C0853731F4232D2F7EB22E2AE0D0
:1005C00030E025C0932D997FB92E8F36C1F018F4F5
:1005D000883579F0B5C0803719F0883721F0B0C080
:1005E000E92FE061BE2EB4FE0DC0FB2DF460BF2EDE
:1005F00009C034FE0AC0292F2660B22E06C028E0AA
:1006000030E005C020E130E002C020E132E0F80136
:10061000B7FE07C060817181828193810C5F1F4F9B
:1006200006C06081718180E090E00E5F1F4FA301E2
:100630000E94FC03882E8618FB2DFF773F2E36FE86
:100640000DC0232D2E7FA22E891458F434FE0BC02A
:1006500032FC09C0832D8E7EA82E05C0B82CA32C99
:1006600003C0B82C01C0B92CA4FE0FC0FE01E80DD8
:10067000F11D8081803321F49A2D997EA92E09C025
:10068000A2FE06C0B394B39404C08A2D867809F004
:10069000B394A3FC11C0A0FE06C0B21488F4280CC9
:1006A000922C9B180EC0B21460F4B60180E290E068
:1006B0000E94C003B394F7CFB21418F42B1802C0F1
:1006C000982C212CA4FE10C0B60180E390E00E947B
:1006D000C003A2FE17C0A1FC03C088E790E002C0DF
:1006E00088E590E0B6010CC08A2D867859F0A1FE0D
:1006F00002C08BE201C080E2A7FC8DE2B60190E06F
:100700000E94C003891438F4B60180E390E00E948F
:10071000C0039A94F7CF8A94F301E80DF11D80810C
:10072000B60190E00E94C0038110F5CF222009F4A9
:1007300042CEB60180E290E00E94C0032A94F6CF38
:10074000F6018681978102C08FEF9FEF2B96E2E141
:100750000C947604FC010590615070400110D8F7AC
:10076000809590958E0F9F1F0895FC0161507040F9
:1007700001900110D8F7809590958E0F9F1F0895D6
:100780000F931F93CF93DF93FB01238121FD03C0C0
:100790008FEF9FEF2CC022FF16C046815781248126
:1007A00035814217530744F4A081B1819D012F5F29
:1007B0003F4F318320838C93268137812F5F3F4FBA
:1007C0003783268314C08B01EC01FB010084F18583
:1007D000E02D0995892BE1F6D80116968D919C9113
:1007E0001797019617969C938E931697CE01DF91DB
:1007F000CF911F910F910895FA01AA27283051F146
:10080000203181F1E8946F936E7F6E5F7F4F8F4F41
:100810009F4FAF4FB1E03ED0B4E03CD0670F781FA0
:10082000891F9A1FA11D680F791F8A1F911DA11D85
:100830006A0F711D811D911DA11D20D009F46894BE
:100840003F912AE0269F11243019305D3193DEF666
:10085000CF010895462F4770405D4193B3E00FD01C
:10086000C9F7F6CF462F4F70405D4A3318F0495D07
:1008700031FD4052419302D0A9F7EACFB4E0A695EA
:100880009795879577956795BA95C9F7009761050C
:10089000710508959B01AC010A2E06945795479562
:1008A00037952795BA95C9F7620F731F841F951F57
:1008B000A01D08952F923F924F925F926F927F9268
:1008C0008F929F92AF92BF92CF92DF92EF92FF9260
:1008D0000F931F93CF93DF93CDB7DEB7CA1BDB0B0C
:1008E0000FB6F894DEBF0FBECDBF09942A883988B1
:1008F00048885F846E847D848C849B84AA84B984B8
:10090000C884DF80EE80FD800C811B81AA81B981C3
:10091000CE0FD11D0FB6F894DEBF0FBECDBFED01D7
:060920000895F894FFCFDA
:1009260000000002000000004701000000002564EE
:10093600202B202564203D202564200A00256420E4
:100946002D202564203D202564200A002564202AC8
:10095600202564203D202564200A004E6965206418
:100966007A69656C2063686F6C65726F2070727A45
:10097600657A207A65726F21200A002564202F206F
:100986002564203D202564200A00576974616A2089
:10099600706F64616A207069657277737A61206C22
:0A09A60069637A626521200A0000EF
:00000001FF
