:100000000C942A000C943E000C943C000C943C0090
:100010000C943C000C943C000C943C000C943C0070
:100020000C943C000C943C000C943C000C943C0060
:100030000C943C000C943C000C943C000C943C0050
:100040000C943C000C943C000C943C000C943C0040
:100050000C943C0011241FBECFE5D8E0DEBFCDBF1D
:1000600020E0A0E6B0E001C01D92A136B207E1F7A2
:100070000E945C000C9469000C9400001F920F9287
:100080000FB60F9211242F938F939F93809160004E
:100090008F5F809360002FEF83EC99E021508040C8
:1000A0009040E1F700C000009F918F912F910F9039
:1000B0000FBE0F901F9018958FEF84BB84E082BB1A
:1000C0008BB780648BBF789480916000809585BBEE
:0600D000FBCFF894FFCF06
:00000001FF
