:100000000C9430000C944F000C94E1000C944D00C3
:100010000C944D000C944D000C944D000C944D002C
:100020000C944D000C944D000C944D000C944D001C
:100030000C944D000C943E010C944D000C944D001A
:100040000C944D000C944D000C944D000C944D00FC
:100050000C944D00416C61206D61206B6F746100E8
:1000600011241FBECFE5D8E0DEBFCDBF11E0A0E672
:10007000B0E0E8EEFFE002C005900D92A035B107B8
:10008000D9F721E0A0E5B1E001C01D92AF35B2077C
:10009000E1F70E9470040C94F2070C9400001F9288
:1000A0000F920FB60F9211242F933F934F935F93AC
:1000B0006F937F938F939F93AF93BF93CF93DF9370
:1000C000EF93FF938EE690E00E94D60360E080E01D
:1000D0000E94B602E0917300F0E0EE0FFF1FE05ABD
:1000E000FF4F81818F9380818F93809171001F9248
:1000F0008F93809170001F928F9380916F001F9259
:100100008F9388E990E09F938F93CAE8D0E0DF93C4
:10011000CF930E94EE048DB79EB70C960FB6F8945D
:100120009EBF0FBE8DBF8091530181111BC061E046
:100130000E94B602809176001F928F938091770083
:100140001F928F938CEA90E09F938F93DF93CF93CE
:100150000E94EE048DB79EB708960FB6F8949EBF26
:100160000FBE8DBF809153018130C1F461E080E00A
:100170000E94B60280917A001F928F938FEB90E0DD
:100180009F938F938AE890E09F938F930E94EE0451
:100190000F900F900F900F900F900F90FF91EF9195
:1001A000DF91CF91BF91AF919F918F917F916F918F
:1001B0005F914F913F912F910F900FBE0F901F9025
:1001C00018951F920F920FB60F921124CF92DF92C3
:1001D000EF92FF920F931F932F933F934F935F9351
:1001E0006F937F938F939F93AF93BF93EF93FF93FF
:1001F00018BA2FEF83ED90E3215080409040E1F753
:1002000000C000008FEF88BB809153018130F9F46A
:1002100010927B00C0906E00D0906F00E090700054
:10022000F0907100009172001091730020917400A1
:100230003091750040917600509177006091780080
:100240007091790080917A0090E00E940D03FF91F7
:10025000EF91BF91AF919F918F917F916F915F913E
:100260004F913F912F911F910F91FF90EF90DF9051
:10027000CF900F900FBE0F901F9018951F920F9266
:100280000FB60F921124CF92DF92EF92FF920F934D
:100290001F932F933F934F935F936F937F938F930E
:1002A0009F93AF93BF93EF93FF93809152019CB1C3
:1002B000E82FF0E0EC5AFE4F90839A3009F0BFC06F
:1002C00043E050E06DEC70E084E591E00E94D804DA
:1002D000892B51F587E591E00E94BA048093500183
:1002E0008093770092E090936E0042E0C42ED0900D
:1002F0006F00E0907000F09071000091720010911A
:100300007300209174003091750040917600582F51
:10031000609178007091790080917A0090917B00D3
:100320000E940D031092530143E050E061ED70E034
:1003300084E591E00E94D804892B09F048C087E544
:1003400091E00E94BA048093500192E090936E0075
:100350008093760032E0C32ED0906F00E090700062
:10036000F090710000917200109173002091740060
:1003700030917500482F509177006091780070910E
:10038000790080917A0090917B000E940D0361E0DA
:1003900080E00E94B602809176001F928F93809138
:1003A00077001F928F9385ED90E09F938F938AE85B
:1003B00090E09F938F930E94EE04109253018DB7AB
:1003C0009EB708960FB6F8949EBF0FBE8DBF42E051
:1003D00050E066EE70E084E591E00E94D804892B3D
:1003E00059F586E591E00E94BA048093500191E1AD
:1003F00090936E0092E890937B0080937A0021E1C5
:10040000C22ED0906F00E0907000F09071000091CB
:10041000720010917300209174003091750040912A
:1004200076005091770060917800709179000E9479
:100430000D0381E0809353011092520103C08F5F3E
:1004400080935201FF91EF91BF91AF919F918F9156
:100450007F916F915F914F913F912F911F910F91DC
:10046000FF90EF90DF90CF900F900FBE0F901F90F6
:100470001895DA98DB9A9BB3282F207F9F70922BD8
:100480009BBBEFE9FFE03197F1F700C00000DB987C
:10049000EFE9FFE03197F1F700C00000DB9A2BB3E2
:1004A000F0E18F9FC0011124922F9F70892B8BBB8D
:1004B0008FE99FE00197F1F700C00000DB98EFE9BA
:1004C000FFE03197F1F700C000000895DA9ADB9A57
:1004D0009BB3282F207F9F70922B9BBBEFE9FFE0FF
:1004E0003197F1F700C00000DB98EFE9FFE03197AA
:1004F000F1F700C00000DB9A2BB3F0E18F9FC00141
:100500001124922F9F70892B8BBB8FE99FE001975D
:10051000F1F700C00000DB98EFE9FFE03197F1F759
:1005200000C0000008958FEF8ABB2FE782E392E0BE
:10053000215080409040E1F700C0000083E30E941A
:10054000390282E30E94390288E20E94390288E07F
:100550000E94390281E00E94390286E00E9439023D
:100560008FE00C94390281E00C943902805890E4B9
:10057000699F800D11240C9439020F931F93CF9320
:10058000DF938A010E94B602E8018991882319F05D
:100590000E946602FACFDF91CF911F910F910895CB
:1005A0000E94660280E090E00895811102C08CE014
:1005B00003C0813019F48FE00C943902089588E467
:1005C00080B9089584EA86BF06B607FEFDCF089578
:1005D00084E986BF06B604FCFDCF089583B984E89C
:1005E00086BF06B607FEFDCF089520E4829FC001B6
:1005F0001124846886BF06B607FEFDCF83B1089537
:100600000E94E20282EA0E94EE028DE00E94EE0267
:1006100083E80E94EE020C94E8026F927F928F9220
:100620009F92AF92BF92CF92DF92EF92FF920F9381
:100630001F93CF93DF93CDB7DEB72E970FB6F89405
:10064000DEBF0FBECDBFC9828D879E87612E722E01
:10065000832E942EA52EB62EC72E0E94E20282EA89
:100660000E94EE0281E00E94EE0289810E94EE0269
:100670001AE08F2D612F0E94AE0420E1829F900D21
:100680001124892F0E94EE028E2D612F0E94AE044C
:1006900020E1829F900D1124892F0E94EE028D2D62
:1006A000612F0E94AE0420E1829F900D1124892FBA
:1006B0000E94EE02802F612F0E94AE0420E1829FF3
:1006C000900D1124892F0E94EE02862D612F0E9429
:1006D000AE0420E1829F900D1124892F0E94EE022A
:1006E000872D612F0E94AE0420E1829F900D11247E
:1006F000892F0E94EE02882D612F0E94AE0420E116
:10070000829F900D1124892F0E94EE02892D612F66
:100710000E94AE0420E1829F900D1124892F0E9437
:10072000EE028A2D612F0E94AE0420E1829F900D7F
:100730001124892F0E94EE028B2D612F0E94AE049E
:1007400020E1829F900D1124892F0E94EE028C2DB2
:10075000612F0E94AE0420E1829F900D1124892F09
:100760000E94EE020E94E20282EA0E94EE028EE005
:100770000E94EE028E850E94EE028D850E94EE029E
:100780002E960FB6F894DEBF0FBECDBFDF91CF918E
:100790001F910F91FF90EF90DF90CF90BF90AF909F
:1007A0009F908F907F906F900C94E802CF93DF938F
:1007B000EC010E94E20282EA0E94EE0282E00E94C4
:1007C000EE020E94E20283EA0E94EE0281E00E94B1
:1007D000F502982F9695969596959E70292F220F43
:1007E000220F920F8F70890F8B8381E00E94F50298
:1007F000982F9695969596959E70292F220F220FE9
:10080000920F8F70890F8A8381E00E94F502982FE2
:100810009695969596959670292F220F220F920FF6
:100820008F70890F898381E00E94F502982F969539
:10083000969596959670292F220F220F920F8F7002
:10084000890F8C8381E00E94F50287708D8381E09F
:100850000E94F50284FB992790F9990F292F220F06
:10086000220F920F8F70890F8E8381E00E94F50214
:10087000982F92959F708F702AE0929F800D11247F
:100880008F8381E00E94F50281E00E94F50281E001
:100890000E94F50281E00E94F50281E00E94F502CB
:1008A00081E00E94F50280E00E94F5028C87DF91D2
:1008B000CF910C94E80290BD89B98EE880BD88E1A3
:1008C0008AB9579A08955D9BFECF8CB908955F9BB6
:1008D000FECF8CB108950E94630480E090E00895FB
:1008E00085B78A6085BF8BB7806C8BBF8FEF87BB66
:1008F00088BB0E94930280E00E94D5020E94B3024E
:100900000E94DF020E940003C0906E00D0906F0032
:10091000E0907000F09071000091720010917300EF
:1009200020917400309175004091760050917700CD
:10093000609178007091790080917A0090917B00AD
:100940000E940D0381E090E00E945B0478946CE7C4
:1009500070E089EE90E00E940005FFCF991B79E0DE
:1009600004C0991F961708F0961B881F7A95C9F73F
:1009700080950895FC0188279927E89421912032D9
:10098000E9F3293010F02E30C8F32B3241F02D322C
:1009900039F4689404C00E94E604820F911D2191ED
:1009A00020532A30C0F31EF4909581959F4F0895EF
:1009B000FB01DC014150504030F08D9101908019D5
:1009C00019F40020B9F7881B990B08957AE0979FD6
:1009D000902D879F802D910D11240895A0E0B0E007
:1009E000E4EFF4E00C94CB07AE01475F5F4F6F81FB
:1009F00078858D819E810E942A05E2E00C94E707AC
:100A0000EF92FF920F931F93CF93DF93DB01139627
:100A10002C9121FF18C08B017C01D0E0C0E0F701D0
:100A200081917F01882361F0D8011896ED91FC91A6
:100A30001997B8010995892B91F3DFEFCFEFEFCF2D
:100A40008D2F9C2F02C08FEF9FEFCDB7DEB7E6E072
:100A50000C94E307ABE0B0E0E0E3F5E00C94BB07F7
:100A60006C017B018A01FC0117821682838181FF60
:100A7000CCC1CE0101963C01F6019381F70193FDB3
:100A8000859193FF81917F01882309F4BAC1853252
:100A900039F493FD859193FF81917F01853229F48B
:100AA000B60190E00E942107E7CF912C212C312C38
:100AB000FFE1F315D8F08B3279F038F4803279F019
:100AC0008332A1F4232D20611DC08D3261F080336B
:100AD00069F4232D216016C0832D8260382EE32D0A
:100AE000E4603E2E2AC0F32DF8601DC037FC2DC0F7
:100AF00020ED280F2A3040F08E32B9F436FC81C147
:100B0000232D2064322E19C036FE06C08AE0989E3E
:100B1000200D1124922E11C0EAE02E9E200D1124EA
:100B2000222EF32DF0623F2E08C08C3621F4832D47
:100B30008068382E02C0883641F4F70193FD859114
:100B400093FF81917F018111B3CF982F9F7D9554A1
:100B5000933028F40C5F1F4F9FE399830DC08336B9
:100B600031F0833771F0833509F059C021C0F801A5
:100B7000808189830E5F1F4F88248394912C5301B9
:100B800013C02801F2E04F0E511CF801A080B18083
:100B900036FE03C0692D70E002C06FEF7FEFC50124
:100BA0000E9416074C018201F32DFF773F2E16C0DD
:100BB000280122E0420E511CF801A080B18036FECF
:100BC00003C0692D70E002C06FEF7FEFC5010E9486
:100BD0000B074C01F32DF0683F2E820133FC1BC044
:100BE000822D90E088169906B0F4B60180E290E07C
:100BF0000E9421072A94F4CFF50137FC859137FE36
:100C000081915F01B60190E00E94210721102A9492
:100C100021E0821A91088114910471F7E8C08436AA
:100C200011F0893641F5F80137FE07C06081718106
:100C3000828193810C5F1F4F08C060817181072EF4
:100C4000000C880B990B0E5F1F4FF32DFF763F2E84
:100C500097FF09C090958095709561957F4F8F4F54
:100C60009F4FF0683F2E2AE030E0A3010E945D070D
:100C7000882E861845C0853731F4232D2F7EB22E5D
:100C80002AE030E025C0932D997FB92E8F36C1F030
:100C900018F4883579F0B5C0803719F0883721F01D
:100CA000B0C0E92FE061BE2EB4FE0DC0FB2DF46094
:100CB000BF2E09C034FE0AC0292F2660B22E06C0FE
:100CC00028E030E005C020E130E002C020E132E061
:100CD000F801B7FE07C060817181828193810C5F4A
:100CE0001F4F06C06081718180E090E00E5F1F4F52
:100CF000A3010E945D07882E8618FB2DFF773F2EEB
:100D000036FE0DC0232D2E7FA22E891458F434FEFA
:100D10000BC032FC09C0832D8E7EA82E05C0B82CD6
:100D2000A32C03C0B82C01C0B92CA4FE0FC0FE0137
:100D3000E80DF11D8081803321F49A2D997EA92E32
:100D400009C0A2FE06C0B394B39404C08A2D86786D
:100D500009F0B394A3FC11C0A0FE06C0B21488F43D
:100D6000280C922C9B180EC0B21460F4B60180E2DD
:100D700090E00E942107B394F7CFB21418F42B1817
:100D800002C0982C212CA4FE10C0B60180E390E094
:100D90000E942107A2FE17C0A1FC03C088E790E0D3
:100DA00002C088E590E0B6010CC08A2D867859F023
:100DB000A1FE02C08BE201C080E2A7FC8DE2B60179
:100DC00090E00E942107891438F4B60180E390E096
:100DD0000E9421079A94F7CF8A94F301E80DF11D40
:100DE0008081B60190E00E9421078110F5CF22207A
:100DF00009F442CEB60180E290E00E9421072A94D5
:100E0000F6CFF6018681978102C08FEF9FEF2B9678
:100E1000E2E10C94D707FC0105906150704001108D
:100E2000D8F7809590958E0F9F1F0895FC01615013
:100E3000704001900110D8F7809590958E0F9F1FFC
:100E400008950F931F93CF93DF93FB01238121FD1F
:100E500003C08FEF9FEF2CC022FF16C04681578141
:100E6000248135814217530744F4A081B1819D014B
:100E70002F5F3F4F318320838C93268137812F5FF3
:100E80003F4F3783268314C08B01EC01FB010084A4
:100E9000F185E02D0995892BE1F6D80116968D9103
:100EA0009C911797019617969C938E931697CE0157
:100EB000DF91CF911F910F910895FA01AA27283051
:100EC00051F1203181F1E8946F936E7F6E5F7F4F17
:100ED0008F4F9F4FAF4FB1E03ED0B4E03CD0670F93
:100EE000781F891F9A1FA11D680F791F8A1F911DE6
:100EF000A11D6A0F711D811D911DA11D20D009F436
:100F000068943F912AE0269F11243019305D319377
:100F1000DEF6CF010895462F4770405D4193B3E060
:100F20000FD0C9F7F6CF462F4F70405D4A3318F007
:100F3000495D31FD4052419302D0A9F7EACFB4E0B8
:100F4000A6959795879577956795BA95C9F7009770
:100F50006105710508959B01AC010A2E0694579511
:100F6000479537952795BA95C9F7620F731F841F68
:100F7000951FA01D08952F923F924F925F926F92FE
:100F80007F928F929F92AF92BF92CF92DF92EF9219
:100F9000FF920F931F93CF93DF93CDB7DEB7CA1B9A
:100FA000DB0B0FB6F894DEBF0FBECDBF09942A88C5
:100FB000398848885F846E847D848C849B84AA846D
:100FC000B984C884DF80EE80FD800C811B81AA81FA
:100FD000B981CE0FD11D0FB6F894DEBF0FBECDBFC5
:080FE000ED010895F894FFCF24
:100FE8003A013D014001430146014A014D01021702
:100FF8003B381F060C16000001003C0000000002F0
:10100800000000006B040000000000000002000067
:101018000000D00200000000253032643A2530324A
:10102800643A253032642020202573006275647A82
:10103800696B3A20253032643A25303264200073D7
:10104800746F7065723A20253032642000736168CD
:101058000073616D00676F647A3A20253032643A14
:101068002530326420007374004A616B6920747201
:1010780079622077796269657261737A3F20577067
:1010880069737A2030206A657A656C6920636863C1
:1010980065737A2075737461776963206275647A01
:1010A800696B20692031206A657A656C69207374E0
:1010B8006F706572656B21200A006E6400706E00A7
:1010C800777400737200637A7700707400736F002E
:00000001FF
