:100000000C94C9000C94E6000C94E6000C94E600F5
:100010000C94E6000C94E6000C94E6000C94E600C8
:100020000C94E6000C94E6000C94E6000C94E600B8
:100030000C94E6000C94E8000C94E6000C94E600A6
:100040000C94E6000C94E6000C94E6000C94E60098
:100050000C94E6006E616E00696E660000407A10D6
:10006000F35A00A0724E18090010A5D4E80000E869
:100070007648170000E40B54020000CA9A3B0000C7
:1000800000E1F505000080969800000040420F0056
:100090000000A08601000000102700000000E80317
:1000A000000000006400000000000A0000000000E2
:1000B0000100000000002C76D888DC674F0823DFA1
:1000C000C1DFAE59E1B1B796E5E3E453C63AE65174
:1000D000997696E8E6C28426EB898C9B62ED407C9B
:1000E0006FFCEFBC9C9F40F2BAA56FA5F490055A37
:1000F0002AF75C936B6CF9676DC11BFCE0E40D475C
:10010000FEF520E6B500D0ED902E0300943577057E
:100110000080841E080000204E0A000000C80C3336
:100120003333330F986E12831141EF8D2114893BC5
:10013000E65516CFFEE6DB18D1844B381BF77C1D45
:10014000901DA4BBE424203284725E228100C9F198
:1001500024ECA1E53D274E414E494E495459494EA4
:1001600046CDCCCC3D0AD7233C17B7D13877CC2B22
:10017000329595E6241FB14F0A000020410000C8C7
:100180004200401C4620BCBE4CCA1B0E5AAEC59D48
:10019000740011241FBECFE5D8E0DEBFCDBF10E054
:1001A000A0E6B0E0E4E6F7E102C005900D92AC3CB9
:1001B000B107D9F720E0ACECB0E001C01D92A63E3B
:1001C000B207E1F70E94C5020C94B00B0C9400003A
:1001D0001F920F920FB60F9211242F933F934F93BC
:1001E0005F936F937F938F939F93AF93BF93EF939F
:1001F000FF938091DD009CB1E82FF0E0ED52FF4FBE
:1002000090839A3009F06DC08091CC0081112CC090
:1002100083ED90E00E945C089B01AC01CB01DA0108
:100220008093DE009093DF00A093E000B093E100A4
:100230005F934F933F932F938CE790E09F938F931F
:100240008EE690E09F938F930E944E096EE670E0D9
:1002500089E890E00E949C098DB79EB708960FB67A
:10026000F8949EBF0FBE8DBF8091CC00813061F5A8
:1002700083ED90E00E945C089B01AC01CB01DA01A8
:100280008093CD009093CE00A093CF00B093D00088
:100290005F934F933F932F9386E990E09F938F93C3
:1002A0008EE690E09F938F930E944E096EE670E079
:1002B00084EA90E00E949C098DB79EB708960FB61D
:1002C000F8949EBF0FBE8DBF8091CC00813019F491
:1002D0001092CC0003C08F5F8093CC001092DD00A1
:1002E00003C08F5F8093DD00FF91EF91BF91AF91CD
:1002F0009F918F917F916F915F914F913F912F913E
:100300000F900FBE0F901F901895DA98DB9A9BB351
:10031000282F207F9F70922B9BBBEFE9FFE0319746
:10032000F1F700C00000DB98EFE9FFE03197F1F74B
:1003300000C00000DB9A2BB3F0E18F9FC0011124B5
:10034000922F9F70892B8BBB8FE99FE00197F1F76C
:1003500000C00000DB98EFE9FFE03197F1F700C043
:1003600000000895DA9ADB9A9BB3282F207F9F70B4
:10037000922B9BBBEFE9FFE03197F1F700C0000043
:10038000DB98EFE9FFE03197F1F700C00000DB9A5E
:100390002BB3F0E18F9FC0011124922F9F70892B06
:1003A0008BBB8FE99FE00197F1F700C00000DB985D
:1003B000EFE9FFE03197F1F700C0000008958FEFFB
:1003C0008ABB2FE782E392E0215080409040E1F722
:1003D00000C0000083E30E94850182E30E94850142
:1003E00088E20E94850188E00E94850181E00E94E8
:1003F000850186E00E9485018FE00C94850181E0F3
:100400000C948501805890E4699F800D11240C9410
:1004100085010F931F93CF93DF938A010E940202FD
:10042000E8018991882319F00E94B201FACFDF9187
:10043000CF911F910F9108950E94B20180E090E04A
:1004400008958130910511F48DE003C0892B19F4D2
:100450008CE00C9485010895BB9A8FE797E0019793
:10046000F1F700C00000BB98E7E1F1E03197F1F748
:1004700000C0000086B3E7E6F6E03197F1F700C070
:10048000000088700895BB9A882351F080E28A9515
:10049000F1F7BB988FEF90E00197F1F700C00AC029
:1004A0008FEE90E00197F1F700C00000BB9895E354
:1004B0009A95F1F700000895BB9A80E28A95F1F7CA
:1004C000BB98E0E3EA95F1F786B3EBEDF0E0319706
:1004D000F1F700C00000887008951F93CF93DF9359
:1004E000182FC8E0D0E0812F81700E94430216953A
:1004F0002197C9F7DF91CF911F9108950F931F9313
:10050000CF9308E010E0C0E0C6950E945C02811124
:10051000C06801501109C1F78C2FCF911F910F9125
:1005200008950E942C028CEC0E946D0284E40E94CB
:100530006D0280E00895CF930E942C028CEC0E9403
:100540006D028EEB0E946D020E947E02C82F0E94F7
:100550007E0290E0982F88278C0F911DCF910895EF
:1005600090BD89B98EE880BD88E18AB9579A08950F
:100570005D9BFECF8CB908955F9BFECF8CB1089533
:100580000E94B80280E090E008958FEF81BB82BBAB
:100590000E94DF0180E090E00E94210281E090E073
:1005A0000E94B0020E942C0280E090E0A0EDB1E435
:1005B0008093DE009093DF00A093E000B093E10011
:1005C00080E090E0A0EEB1E48093CD009093CE0067
:1005D000A093CF00B093D00078946EE670E083EAE9
:1005E00090E00E949C0901EB10E0C0E6D0E08CEBAB
:1005F000E82E80E0F82EAA24AA940E9491022FEF00
:100600008EE994E2215080409040E1F700C0000064
:100610000E949B026C010E94FF01B60180E090E005
:100620000E94010720E030E040E85DE30E94670798
:10063000962EB72E6C01DF928F937F936F931F934B
:100640000F93DF93CF930E944E0960E08BE00E94EE
:1006500002028FED0E94B2014AEB50E060E08CE0B4
:100660000E94090261E080E00E9402028091D000B5
:100670008F938091CF008F938091CE008F93809144
:10068000CD008F938091E1008F938091E0008F9354
:100690008091DF008F938091DE008F93FF92EF9225
:1006A000DF93CF930E944E098DB79EB744960FB645
:1006B000F8949EBF0FBE8DBF2091CD003091CE002B
:1006C0004091CF005091D000692D7B2D8C2D9D2D18
:1006D0000E94620718160CF4A2BA2091DE00309135
:1006E000DF004091E0005091E100692D7B2D8C2DC1
:1006F0009D2D0E94FC0687FF80CF12BA7ECFA0E11D
:10070000B0E0E5E8F3E00C9425087C011B016A01E8
:10071000FC0117821682838181FF44C39E012F5FF3
:100720003F4F3901F7019381F10193FD859193FFCB
:1007300081911F01882309F431C3853239F493FD77
:10074000859193FF81911F01853239F4B70190E0C3
:100750000E94600956016501E5CF10E0512C912CF3
:10076000FFE1F915D8F08B3279F038F4803279F066
:100770008332A1F4F92DF0612EC08D3261F0803307
:1007800069F4292D21602DC0392D3260932E892DD9
:100790008460982E2AC0E92DE86015C097FC2DC012
:1007A00020ED280F2A3088F496FE06C03AE0139F09
:1007B000200D1124122F19C08AE0589E200D1124FB
:1007C000522EE92DE0629E2E10C08E3231F496FC3E
:1007D000E5C2F92DF0649F2E08C08C3621F4292D36
:1007E0002068922E02C0883641F4F10193FD859174
:1007F00093FF81911F018111B3CF9BEB980F933031
:1008000020F4992D9061805E07C09BE9980F93308A
:1008100008F066C1992D9F7E96FF16E09F73992E72
:10082000853619F49064992E08C0863621F4392F44
:100830003068932E02C01111115097FE07C01C336F
:1008400050F444244394410E27E00BC0183038F094
:1008500027E017E005C027E09CE3492E02C0212FC6
:10086000412C560184E0A80EB11CF6016081718113
:1008700082819381042DA3010E9460086C01F9819B
:10088000FC87F0FF02C0F3FF06C091FC06C092FE99
:1008900006C000E205C00DE203C00BE201C000E0AB
:1008A0008C858C7019F001115AC29BC297FE10C042
:1008B0004C0CFC85F4FF04C08A81813309F44A940E
:1008C000141474F528E0241578F588E0482E2CC01F
:1008D00096FC2AC0812F90E08C159D059CF03CEF82
:1008E000C3163FEFD30674F0892D8068982E0AC096
:1008F000E2E0F0E0EC0FFD1FE10FF11D808180339D
:1009000019F411501111F4CF97FE0EC044244394F2
:10091000410E812F90E0C816D9062CF41C1904C092
:100920004424439401C010E097FE06C01C141D042B
:1009300034F4C601019605C085E090E002C081E074
:1009400090E001110196112331F0212F30E02F5F4B
:100950003F4F820F931F252D30E08217930714F429
:10096000581A01C0512C892D897049F4552039F04D
:10097000B70180E290E00E9460095A94F7CF00230B
:1009800029F0B701802F90E00E94600993FC09C014
:10099000552039F0B70180E390E00E9460095A9435
:1009A000F7CF97FE4CC04601D7FE02C0812C912C98
:1009B000C60188199909F301E80FF91FFE87ED8731
:1009C000960124193109388B2F87012F10E01195DA
:1009D000019511093FEF8316930629F4B7018EE2C2
:1009E00090E00E946009C814D9044CF08F85988962
:1009F0008815990524F4ED85FE85818101C080E389
:100A0000F1E08F1A91082D853E852F5F3F4F3E877D
:100A10002D87801691062CF0B70190E00E946009A6
:100A2000D9CFC814D90441F49A81963320F4953370
:100A300019F43C8534FF81E3B70190E04EC08A8110
:100A4000813319F09C859F7E9C87B70190E00E94BE
:100A50006009111105C094FC18C085E690E017C02C
:100A6000B7018EE290E00E9460091E5F82E001E023
:100A7000080FF301E80FF11D8081B70190E00E949B
:100A80006009802F0113F3CFE6CF85E490E0B70132
:100A90000E946009D7FC06C0C114D10441F4EC8562
:100AA000E4FF05C0D194C194D1088DE201C08BE26E
:100AB000B70190E00E94600980E32AE0C216D104E9
:100AC0002CF08F5FFAE0CF1AD108F7CFB70190E092
:100AD0000E946009B701C601C0960E94600954C116
:100AE000833631F0833779F0833509F056C020C062
:100AF000560132E0A30EB11CF6018081898301E02A
:100B000010E0630112C05601F2E0AF0EB11CF60115
:100B1000C080D18096FE03C0612F70E002C06FEFED
:100B20007FEFC6010E9443098C01F92DFF7714C0A5
:100B3000560122E0A20EB11CF601C080D18096FEC3
:100B400003C0612F70E002C06FEF7FEFC6010E940B
:100B500038098C01F92DF0689F2EF3FD1AC0852D00
:100B600090E008171907A8F4B70180E290E00E940E
:100B700060095A94F4CFF60197FC859197FE819114
:100B80006F01B70190E00E94600951105A94015022
:100B900011090115110579F7F7C0843611F089366E
:100BA00061F5560197FE09C024E0A20EB11CF601C2
:100BB00060817181828193810AC0F2E0AF0EB11C25
:100BC000F60160817181072E000C880B990BF92DBD
:100BD000FF769F2E97FF09C090958095709561953F
:100BE0007F4F8F4F9F4FF0689F2E2AE030E0A30188
:100BF0000E94C609C82EC6183FC0092D853721F4AA
:100C00000F7E2AE030E01DC0097F8F3691F018F486
:100C1000883559F0C3C0803719F0883711F0BEC04D
:100C2000006104FF09C0046007C094FE08C00660AC
:100C300006C028E030E005C020E130E002C020E13D
:100C400032E0560107FF09C084E0A80EB11CF6018E
:100C5000608171818281938108C0F2E0AF0EB11C86
:100C6000F6016081718180E090E0A3010E94C609D5
:100C7000C82EC6180F77902E96FE0BC0092D0E7F3A
:100C8000C11650F494FE0AC092FC08C0092D0E7ED5
:100C900005C0DC2C092D03C0DC2C01C0D12E04FFC3
:100CA0000DC0FE01EC0DF11D8081803311F4097E31
:100CB00009C002FF06C0D394D39404C0802F867865
:100CC00009F0D39403FD11C000FF06C01C2DD514FC
:100CD00080F4150D1D190DC0D51458F4B70180E22C
:100CE00090E00E946009D394F7CFD51410F45D18FA
:100CF00001C0512C04FF10C0B70180E390E00E94B6
:100D0000600902FF17C001FD03C088E790E002C040
:100D100088E590E0B7010CC0802F867859F001FF7C
:100D200002C08BE201C080E207FD8DE2B70190E0D6
:100D30000E946009C11638F4B70180E390E00E9478
:100D400060091150F7CFCA94F301EC0DF11D8081B9
:100D5000B70190E00E946009C110F5CF15C0F4E022
:100D6000F51560F584E0581A93FE1FC0011127C0E5
:100D70002C8523FF2AC004E510E0392D3071932E15
:100D8000F8018491811124C0552009F4E4CCB70105
:100D900080E290E00E9460095A94F6CFF7018681C4
:100DA000978126C08FEF9FEF23C0B70180E290E0CC
:100DB0000E9460095A945110F8CFD8CF512CB70136
:100DC000802F90E00E946009D3CF08E510E0D5CFD6
:100DD00091108052B70190E00E9460090F5F1F4F91
:100DE000CFCF23E0251510F483E0BDCF512CC0CF29
:100DF0006096E2E10C9441080E943E0708F481E00D
:100E00000895E89409C097FB3EF4909580957095FD
:100E100061957F4F8F4F9F4F9923A9F0F92F96E946
:100E2000BB279395F695879577956795B795F111BB
:100E3000F8CFFAF4BB0F11F460FF1BC06F5F7F4F58
:100E40008F4F9F4F16C0882311F096E911C077236A
:100E500021F09EE8872F762F05C0662371F096E873
:100E6000862F70E060E02AF09A95660F771F881F42
:100E7000DAF7880F9695879597F90895990F0008E6
:100E8000550FAA0BE0E8FEEF16161706E807F9075C
:100E9000C0F012161306E407F50798F0621B730BF7
:100EA000840B950B39F40A2661F0232B242B252B78
:100EB00021F408950A2609F4A140A6958FEF811D1B
:100EC000811D08950E943E0708F48FEF08950E9447
:100ED0007A070C94EB070E94DD0738F00E94E407C4
:100EE00020F0952311F00C94D4070C94DA07112408
:100EF0000C941F080E94FC0770F3959FC1F3950F97
:100F000050E0551F629FF001729FBB27F00DB11D8D
:100F1000639FAA27F00DB11DAA1F649F6627B00D1D
:100F2000A11D661F829F2227B00DA11D621F739F06
:100F3000B00DA11D621F839FA00D611D221F749F14
:100F40003327A00D611D231F849F600D211D822F5B
:100F5000762F6A2F11249F5750409AF0F1F0882382
:100F60004AF0EE0FFF1FBB1F661F771F881F9150AF
:100F70005040A9F79E3F510580F00C94D4070C9483
:100F80001F085F3FE4F3983ED4F386957795679505
:100F9000B795F795E7959F5FC1F7FE2B880F911DD9
:100FA0009695879597F9089597F99F6780E870E07F
:100FB00060E008959FEF80EC089500240A941616CF
:100FC000170618060906089500240A941216130637
:100FD000140605060895092E0394000C11F48823C5
:100FE00052F0BB0F40F4BF2B11F460FF04C06F5FE1
:100FF0007F4F8F4F9F4F089557FD9058440F551FB7
:1010000059F05F3F71F04795880F97FB991F61F08A
:101010009F3F79F087950895121613061406551F01
:10102000F2CF4695F1DF08C0161617061806991F6D
:10103000F1CF86957105610508940895E894BB2762
:1010400066277727CB0197F908952F923F924F9209
:101050005F926F927F928F929F92AF92BF92CF9248
:10106000DF92EF92FF920F931F93CF93DF93CDB751
:10107000DEB7CA1BDB0B0FB6F894DEBF0FBECDBFC9
:1010800009942A88398848885F846E847D848C849A
:101090009B84AA84B984C884DF80EE80FD800C81A3
:1010A0001B81AA81B981CE0FD11D0FB6F894DEBF86
:1010B0000FBECDBFED010895662777270C94240A53
:1010C000283008F027E03327DA01990F311D87FD1A
:1010D000916000966105710539F432602E5F3D9391
:1010E00030E32A95E1F708959F3F30F0803871058D
:1010F000610509F03C5F3C5F3D93913008F08068EA
:10110000911DDF93CF931F930F93FF92EF92192FAF
:10111000987F9695E92F96959695E90FFF27EA54C3
:10112000FF4F99273327EE24FF24A701E7010590FD
:101130000894079428F4360FE71EF81E491F511D26
:10114000660F771F881F991F0694A1F705900794D3
:1011500028F4E70EF81E491F561FC11D770F881F80
:10116000991F661F0694A1F70590079428F4F80EBE
:10117000491F561FC71FD11D880F991F661F771F54
:101180000694A1F70590079420F4490F561FC71F36
:10119000D81F990F661F771F881F0694A9F784919F
:1011A0001095177041F0D695C79557954795F794C8
:1011B000E7941A95C1F7ECE5F0E068941590159165
:1011C00035916591959105907FE27395E118F10A4B
:1011D000430B560BC90BD009C0F7E10CF11E431F9E
:1011E000561FC91FD01D7EF4703311F48A95E6CFC7
:1011F000E894015030F0080F0AF40027021708F4B1
:10120000202F2395022F7A3328F079E37D932A95B6
:10121000E9F710C07D932A9589F60694979567950E
:10122000379517951794E118F10A430B560BC90B24
:10123000D00998F023957E9173957A3308F070E386
:101240007C932013B8F77E9170617D9330F0839585
:1012500071E37D9370E32A95E1F71124EF90FF90FD
:101260000F911F91CF91DF91992787FD9095089558
:10127000FC010590615070400110D8F78095909561
:101280008E0F9F1F0895FC01615070400190011066
:10129000D8F7809590958E0F9F1F0895A0E0B0E03D
:1012A000E4E5F9E00C943508AE01475F5F4F6F81CC
:1012B00078858D819E810E947F03E2E00C94510825
:1012C0000F931F93CF93DF93FB01238121FD03C075
:1012D0008FEF9FEF2CC022FF16C0468157812481DB
:1012E00035814217530744F4A081B1819D012F5FDE
:1012F0003F4F318320838C93268137812F5F3F4F6F
:101300003783268314C08B01EC01FB010084F18537
:10131000E02D0995892BE1F6D80116968D919C91C7
:101320001797019617969C938E931697CE01DF918F
:10133000CF911F910F910895EF92FF920F931F93FA
:10134000CF93DF93DB0113962C9121FF18C08B0103
:101350007C01D0E0C0E0F70181917F01882361F03A
:10136000D8011896ED91FC911997B8010995892B30
:1013700091F3DFEFCFEFEFCF8D2F9C2F02C08FEFD8
:101380009FEFCDB7DEB7E6E00C944D08FA01AA272F
:10139000283051F1203181F1E8946F936E7F6E5FB8
:1013A0007F4F8F4F9F4FAF4FB1E03ED0B4E03CD066
:1013B000670F781F891F9A1FA11D680F791F8A1F49
:1013C000911DA11D6A0F711D811D911DA11D20D0B0
:1013D00009F468943F912AE0269F11243019305D6A
:1013E0003193DEF6CF010895462F4770405D41935B
:1013F000B3E00FD0C9F7F6CF462F4F70405D4A33A8
:1014000018F0495D31FD4052419302D0A9F7EACF6F
:10141000B4E0A6959795879577956795BA95C9F79E
:1014200000976105710508959B01AC010A2E069491
:101430005795479537952795BA95C9F7620F731F4A
:10144000841F951FA01D0895A0E0B0E0EAE2FAE035
:101450000C942B08EC016B016115710519F0FB016F
:10146000918380837E01FFEFEF1AFF0A0881802FAE
:1014700090E00E94720B892B11F0E701F3CF0D323F
:1014800039F47E0182E0E80EF11C098111E008C008
:101490000B3229F47E0192E0E90EF11C098110E083
:1014A000E701219743E050E06EE571E0CE010E9434
:1014B0007B0B892BC1F4239645E050E069E571E090
:1014C000CE010E947B0B892B09F42596C114D1040F
:1014D00019F0F601D183C0831111F6C060E070E00D
:1014E00080E89FE7FAC043E050E066E571E0CE0196
:1014F0000E947B0B892B59F4C114D10409F4E9C073
:10150000F2E0EF0EF11CF601F182E082E2C020E091
:1015100030E0A901C0E0D0E0F70180EDA82EA00ED8
:1015200089E08A1530F1912F9260B92E812F887051
:1015300012FF04C0811124C0219622C0811121977D
:10154000A5E0B0E00E94960BDC01CB01880F991F4B
:10155000AA1FBB1F9C01AD012A0D311D411D511D4C
:10156000283989E93807480789E1580748F01660A3
:1015700006C09EEFA9120AC013FD40C01860B12E2C
:101580008FEFE81AF80A00811B2DC6CF802F8F7DC0
:101590008534A1F580818D3211F4106106C08B3243
:1015A00021F0319661E070E004C08181329662E002
:1015B00070E080538A3018F0E61BF70B1FC060E024
:1015C00070E060389CE079075CF4DB01AA0FBB1F78
:1015D000AA0FBB1F6A0F7B1F660F771F680F711D55
:1015E0003196DF0111978C9180538A3050F314FFAC
:1015F00003C0719561957109C60FD71F11FF08C00F
:10160000C114D10429F0CF010197F60191838083A1
:10161000CA01B9010E940107212F2370233019F05C
:101620004B015C0106C04B015C01B7FAB094B7F8FE
:10163000B09420E030E0A901C501B4010E94FC068D
:10164000882309F43EC0D7FF06C0D195C195D109C2
:1016500005E711E002C00DE811E06801F8E1CF1ADA
:10166000D10890E2E92EF12CCE15DF0574F0F801D7
:101670002591359145915491C501B4010E946707A8
:101680004B015C01CE19DF09EFCF04501109F5942D
:10169000E7940C151D0541F78A2D880F8B2D881FA7
:1016A0008F3F49F020E030E0A901C501B4010E945C
:1016B000FC06811106C082E290E09093E5008093E1
:1016C000E400C501B40109C060E070E080E89FEF6C
:1016D00004C060E070E080EC9FE7CDB7DEB7ECE0DF
:1016E0000C94470891110C94930B803219F0895097
:1016F0008550C8F70895FB01DC014150504088F047
:101700008D9181341CF08B350CF4805E65916134D1
:101710001CF06B350CF4605E861B611171F3990B44
:101720000895881BFCCF9927882708950E94A10B54
:10173000A59F900DB49F900DA49F800D911D112425
:101740000895A29FB001B39FC001A39F700D811D9A
:101750001124911DB29F700D811D1124911D0895BA
:04176000F894FFCF2B
:1017640000000002000000001C0200000000000055
:10177400000200000000C00200000000546D696E09
:10178400203D20252E31660A00506F64616A205482
:101794006D61783A2000546D6178203D20252E310A
:1017A400660A0009506F64616A20546D696E3A20BC
:1017B4000054203D20252E346600430054313D253D
:0C17C4002E31662C54323D252E3166007B
:00000001FF
