:100000000C9430000C9445000C9445000C94450071
:100010000C9445000C9445000C9445000C9445004C
:100020000C9445000C9445000C9445000C9445003C
:100030000C9445000C9445000C9445000C9445002C
:100040000C9445000C9445000C9445000C9445001C
:100050000C944500416C61206D61206B6F746100F0
:1000600011241FBECFE5D8E0DEBFCDBF10E0A0E673
:10007000B0E0EEE7F3E002C005900D92A239B107BF
:10008000D9F70E94ED000C94BD010C940000DA98A1
:10009000DB9A9BB3282F207F9F70922B9BBBEFE9AD
:1000A000FFE03197F1F700C00000DB98EFE9FFE0D7
:1000B0003197F1F700C00000DB9A2BB3F0E18F9F7E
:1000C000C0011124922F9F70892B8BBB8FE99FE079
:1000D0000197F1F700C00000DB98EFE9FFE03197EE
:1000E000F1F700C000000895DA9ADB9A9BB3282F3D
:1000F000207F9F70922B9BBBEFE9FFE03197F1F7D8
:1001000000C00000DB98EFE9FFE03197F1F700C095
:100110000000DB9A2BB3F0E18F9FC0011124922FD6
:100120009F70892B8BBB8FE99FE00197F1F700C08F
:100130000000DB98EFE9FFE03197F1F700C0000025
:1001400008958FEF8ABB2FE782E392E02150804031
:100150009040E1F700C0000083E30E94470082E383
:100160000E94470088E20E94470088E00E94470002
:1001700081E00E94470086E00E9447008FE00C94D7
:10018000470081E00C944700805890E4699F800DFF
:1001900011240C9447000F931F93CF93DF938A0190
:1001A0000E94C400E8018991882319F00E9474001C
:1001B000FACFDF91CF911F910F9108950E947400A3
:1001C00080E090E00895811102C08CE003C081308E
:1001D00019F48FE00C94470008950E94A10083E574
:1001E0000E94740089E60E94740085E60E947400F3
:1001F0008DE60E94740081E60E94740080E20E94F5
:10020000740083E60E9474008FE60E94740080E20E
:100210000E94740084E70E94740081E60E947400CA
:100220008DE60E9474008FE30E9474002FEF83ED2F
:1002300090E3215080409040E1F700C000004EE67E
:1002400050E061E082E00E94CB002FEF83ED90E36D
:10025000215080409040E1F700C000000E94C100A2
:1002600080E40E94470080E00E94740080E00E94C9
:1002700074008FE10E9474008AE00E9474008AE09A
:100280000E9474008AE00E94740080E00E94740062
:1002900080E00E94740061E081E00E94C40080E080
:1002A0000E94740080E00E94E3000E94C10060E0B0
:1002B00080E10E94C40060E670E08CE790E00E945C
:1002C000780161E080E10E94C40060E670E088E8A7
:1002D00090E00E94780188E10E9447002FEF83EDB3
:1002E00090E3215080409040E1F700C00000F3CF40
:1002F000EF92FF920F931F93CF93DF93DB0113963F
:100300002C9121FF18C08B017C01D0E0C0E0F701E7
:1003100081917F01882361F0D8011896ED91FC91BD
:100320001997B8010995892B91F3DFEFCFEFEFCF44
:100330008D2F9C2F02C08FEF9FEFCDB7DEB7E6E089
:100340000C94AE012A88398848885F846E847D8445
:100350008C849B84AA84B984C884DF80EE80FD806D
:100360000C811B81AA81B981CE0FD11D0FB6F894E3
:0E037000DEBF0FBECDBFED010895F894FFCFA4
:10037E000000000200000000DE0000000000446FDC
:10038E0062727A6520636F2074616D0054656368D4
:10039E006E69637A6E6965006E616A6C6570736909
:0203AE0000004D
:00000001FF
