:100000000C942A000C9447000C9447000C94470071
:100010000C9447000C9447000C9447000C94470044
:100020000C9447000C9447000C9447000C94470034
:100030000C9447000C9449000C9447000C94470022
:100040000C9447000C9447000C9447000C94470014
:100050000C94470011241FBECFE5D8E0DEBFCDBF12
:1000600010E0A0E6B0E0E8EAF2E002C005900D92F0
:10007000AE38B107D9F720E0AEE8B0E001C01D927C
:10008000AB39B207E1F70E94A0000C9452010C9426
:1000900000001F920F920FB60F9211242F933F93DF
:1000A0004F935F936F937F938F939F93AF93BF9380
:1000B000EF93FF9380918F009CB1E82FF0E0EF5613
:1000C000FF4F90839A3011F09D3089F481E990E0E0
:1000D0000E94E70080938E0026E1829FC0011124D8
:1000E0008053984F9BBD8ABD10928F0003C08F5FD5
:1000F00080938F00FF91EF91BF91AF919F918F916E
:100100007F916F915F914F913F912F910F900FBE13
:100110000F901F90189590BD89B98EE880BD88E139
:100120008AB9579A08955D9BFECF8CB908955F9B5D
:10013000FECF8CB108950E94930080E090E0089576
:1001400081E090E00E948B0060E670E08EE690E037
:100150000E940D018FE39CE997BD86BD8FEF81BBA7
:1001600087BB9FB592689FBD9EB59A619EBD93B7B0
:10017000996793BF1CBE28EB3BE03BBD2ABD2FEF28
:1001800037EA91E6215030409040E1F700C000008E
:1001900095B5996795BD83BD80E08CBF982F9095EC
:1001A00093BDEFE7FEE33197F1F700C000008F5FEA
:1001B0008F3F99F78CBF982F909593BDEFE7FEE3A3
:1001C0003197F1F700C000008150A1F7E5CFFC01A5
:1001D00088279927E89421912032E9F3293010F0FB
:1001E0002E30C8F32B3241F02D3239F4689404C01C
:1001F0000E940501820F911D219120532A30C0F3E6
:100200001EF4909581959F4F08957AE0979F902DC9
:10021000879F802D910D11240895EF92FF920F93E7
:100220001F93CF93DF93DB0113962C9121FF18C00E
:100230008B017C01D0E0C0E0F70181917F01882330
:1002400061F0D8011896ED91FC911997B8010995C4
:10025000892B91F3DFEFCFEFEFCF8D2F9C2F02C0D3
:100260008FEF9FEFCDB7DEB7E6E00C9443012A880D
:10027000398848885F846E847D848C849B84AA84BA
:10028000B984C884DF80EE80FD800C811B81AA8147
:10029000B981CE0FD11D0FB6F894DEBF0FBECDBF12
:0802A000ED010895F894FFCF71
:1002A80000000002000000009B00000000005769E9
:1002B80074616A20706F64616A207069657277730F
:0E02C8007A61206C69637A626521200A000069
:00000001FF
